{
  "_format": "hh-sol-artifact-1",
  "contractName": "LendingPool",
  "sourceName": "contracts/LendingPool.sol",
  "abi": [
    {
      "inputs": [
        {
          "internalType": "address",
          "name": "_lendingToken",
          "type": "address"
        },
        {
          "internalType": "uint256",
          "name": "_initialEthPrice",
          "type": "uint256"
        }
      ],
      "stateMutability": "nonpayable",
      "type": "constructor"
    },
    {
      "anonymous": false,
      "inputs": [
        {
          "indexed": true,
          "internalType": "address",
          "name": "user",
          "type": "address"
        },
        {
          "indexed": false,
          "internalType": "uint256",
          "name": "amount",
          "type": "uint256"
        }
      ],
      "name": "Borrow",
      "type": "event"
    },
    {
      "anonymous": false,
      "inputs": [
        {
          "indexed": true,
          "internalType": "address",
          "name": "user",
          "type": "address"
        },
        {
          "indexed": false,
          "internalType": "uint256",
          "name": "amount",
          "type": "uint256"
        }
      ],
      "name": "Deposit",
      "type": "event"
    },
    {
      "anonymous": false,
      "inputs": [
        {
          "indexed": true,
          "internalType": "address",
          "name": "previousOwner",
          "type": "address"
        },
        {
          "indexed": true,
          "internalType": "address",
          "name": "newOwner",
          "type": "address"
        }
      ],
      "name": "OwnershipTransferred",
      "type": "event"
    },
    {
      "anonymous": false,
      "inputs": [
        {
          "indexed": false,
          "internalType": "uint256",
          "name": "newPrice",
          "type": "uint256"
        }
      ],
      "name": "PriceUpdated",
      "type": "event"
    },
    {
      "inputs": [
        {
          "internalType": "uint256",
          "name": "amount",
          "type": "uint256"
        }
      ],
      "name": "borrow",
      "outputs": [],
      "stateMutability": "nonpayable",
      "type": "function"
    },
    {
      "inputs": [],
      "name": "deposit",
      "outputs": [],
      "stateMutability": "payable",
      "type": "function"
    },
    {
      "inputs": [
        {
          "internalType": "address",
          "name": "",
          "type": "address"
        }
      ],
      "name": "deposits",
      "outputs": [
        {
          "internalType": "uint256",
          "name": "",
          "type": "uint256"
        }
      ],
      "stateMutability": "view",
      "type": "function"
    },
    {
      "inputs": [],
      "name": "ethPrice",
      "outputs": [
        {
          "internalType": "uint256",
          "name": "",
          "type": "uint256"
        }
      ],
      "stateMutability": "view",
      "type": "function"
    },
    {
      "inputs": [
        {
          "internalType": "uint256",
          "name": "amount",
          "type": "uint256"
        }
      ],
      "name": "fundPool",
      "outputs": [],
      "stateMutability": "nonpayable",
      "type": "function"
    },
    {
      "inputs": [],
      "name": "lendingToken",
      "outputs": [
        {
          "internalType": "contract IERC20",
          "name": "",
          "type": "address"
        }
      ],
      "stateMutability": "view",
      "type": "function"
    },
    {
      "inputs": [
        {
          "internalType": "address",
          "name": "",
          "type": "address"
        }
      ],
      "name": "loans",
      "outputs": [
        {
          "internalType": "uint256",
          "name": "",
          "type": "uint256"
        }
      ],
      "stateMutability": "view",
      "type": "function"
    },
    {
      "inputs": [],
      "name": "owner",
      "outputs": [
        {
          "internalType": "address",
          "name": "",
          "type": "address"
        }
      ],
      "stateMutability": "view",
      "type": "function"
    },
    {
      "inputs": [],
      "name": "renounceOwnership",
      "outputs": [],
      "stateMutability": "nonpayable",
      "type": "function"
    },
    {
      "inputs": [
        {
          "internalType": "address",
          "name": "newOwner",
          "type": "address"
        }
      ],
      "name": "transferOwnership",
      "outputs": [],
      "stateMutability": "nonpayable",
      "type": "function"
    },
    {
      "inputs": [
        {
          "internalType": "uint256",
          "name": "_newPrice",
          "type": "uint256"
        }
      ],
      "name": "updatePrice",
      "outputs": [],
      "stateMutability": "nonpayable",
      "type": "function"
    }
  ],
  "bytecode": "0x60806040523480156200001157600080fd5b506040516200156138038062001561833981810160405281019062000037919062000222565b60016000819055506200005f62000053620000af60201b60201c565b620000b760201b60201c565b81600460006101000a81548173ffffffffffffffffffffffffffffffffffffffff021916908373ffffffffffffffffffffffffffffffffffffffff16021790555080600581905550505062000269565b600033905090565b6000600160009054906101000a900473ffffffffffffffffffffffffffffffffffffffff16905081600160006101000a81548173ffffffffffffffffffffffffffffffffffffffff021916908373ffffffffffffffffffffffffffffffffffffffff1602179055508173ffffffffffffffffffffffffffffffffffffffff168173ffffffffffffffffffffffffffffffffffffffff167f8be0079c531659141344cd1fd0a4f28419497f9722a3daafe3b4186f6b6457e060405160405180910390a35050565b600080fd5b600073ffffffffffffffffffffffffffffffffffffffff82169050919050565b6000620001af8262000182565b9050919050565b620001c181620001a2565b8114620001cd57600080fd5b50565b600081519050620001e181620001b6565b92915050565b6000819050919050565b620001fc81620001e7565b81146200020857600080fd5b50565b6000815190506200021c81620001f1565b92915050565b600080604083850312156200023c576200023b6200017d565b5b60006200024c85828601620001d0565b92505060206200025f858286016200020b565b9150509250929050565b6112e880620002796000396000f3fe60806040526004361061009c5760003560e01c8063c5ebeaec11610064578063c5ebeaec14610174578063d0e30db01461019d578063da3a5f72146101a7578063f2fde38b146101d0578063fc7e286d146101f9578063ff186b2e146102365761009c565b8063715018a6146100a157806373b4086b146100b85780638d6cc56d146100f55780638da5cb5b1461011e578063aaaca55814610149575b600080fd5b3480156100ad57600080fd5b506100b6610261565b005b3480156100c457600080fd5b506100df60048036038101906100da9190610bb1565b610275565b6040516100ec9190610bf7565b60405180910390f35b34801561010157600080fd5b5061011c60048036038101906101179190610c3e565b61028d565b005b34801561012a57600080fd5b50610133610319565b6040516101409190610c7a565b60405180910390f35b34801561015557600080fd5b5061015e610343565b60405161016b9190610cf4565b60405180910390f35b34801561018057600080fd5b5061019b60048036038101906101969190610c3e565b610369565b005b6101a5610723565b005b3480156101b357600080fd5b506101ce60048036038101906101c99190610c3e565b61081c565b005b3480156101dc57600080fd5b506101f760048036038101906101f29190610bb1565b610908565b005b34801561020557600080fd5b50610220600480360381019061021b9190610bb1565b61098b565b60405161022d9190610bf7565b60405180910390f35b34801561024257600080fd5b5061024b6109a3565b6040516102589190610bf7565b60405180910390f35b6102696109a9565b6102736000610a27565b565b60036020528060005260406000206000915090505481565b6102956109a9565b600081116102d8576040517f08c379a00000000000000000000000000000000000000000000000000000000081526004016102cf90610d6c565b60405180910390fd5b806005819055507f66cbca4f3c64fecf1dcb9ce094abcf7f68c3450a1d4e3a8e917dd621edb4ebe08160405161030e9190610bf7565b60405180910390a150565b6000600160009054906101000a900473ffffffffffffffffffffffffffffffffffffffff16905090565b600460009054906101000a900473ffffffffffffffffffffffffffffffffffffffff1681565b610371610aed565b600081116103b4576040517f08c379a00000000000000000000000000000000000000000000000000000000081526004016103ab90610dd8565b60405180910390fd5b6000600260003373ffffffffffffffffffffffffffffffffffffffff1673ffffffffffffffffffffffffffffffffffffffff1681526020019081526020016000205490506000600554826104089190610e27565b90506000606460508361041b9190610e27565b6104259190610e98565b90508084600360003373ffffffffffffffffffffffffffffffffffffffff1673ffffffffffffffffffffffffffffffffffffffff168152602001908152602001600020546104739190610ec9565b11156104b4576040517f08c379a00000000000000000000000000000000000000000000000000000000081526004016104ab90610f49565b60405180910390fd5b83600460009054906101000a900473ffffffffffffffffffffffffffffffffffffffff1673ffffffffffffffffffffffffffffffffffffffff166370a08231306040518263ffffffff1660e01b81526004016105109190610c7a565b602060405180830381865afa15801561052d573d6000803e3d6000fd5b505050506040513d601f19601f820116820180604052508101906105519190610f7e565b1015610592576040517f08c379a000000000000000000000000000000000000000000000000000000000815260040161058990610ff7565b60405180910390fd5b83600360003373ffffffffffffffffffffffffffffffffffffffff1673ffffffffffffffffffffffffffffffffffffffff16815260200190815260200160002060008282546105e19190610ec9565b92505081905550600460009054906101000a900473ffffffffffffffffffffffffffffffffffffffff1673ffffffffffffffffffffffffffffffffffffffff1663a9059cbb33866040518363ffffffff1660e01b8152600401610645929190611017565b6020604051808303816000875af1158015610664573d6000803e3d6000fd5b505050506040513d601f19601f820116820180604052508101906106889190611078565b6106c7576040517f08c379a00000000000000000000000000000000000000000000000000000000081526004016106be906110f1565b60405180910390fd5b3373ffffffffffffffffffffffffffffffffffffffff167fcbc04eca7e9da35cb1393a6135a199ca52e450d5e9251cbd99f7847d33a367508560405161070d9190610bf7565b60405180910390a2505050610720610b3c565b50565b61072b610aed565b6000341161076e576040517f08c379a000000000000000000000000000000000000000000000000000000000815260040161076590610dd8565b60405180910390fd5b34600260003373ffffffffffffffffffffffffffffffffffffffff1673ffffffffffffffffffffffffffffffffffffffff16815260200190815260200160002060008282546107bd9190610ec9565b925050819055503373ffffffffffffffffffffffffffffffffffffffff167fe1fffcc4923d04b559f4d29a8bfc6cda04eb5b0d3c460751c2402c5c5cc9109c3460405161080a9190610bf7565b60405180910390a261081a610b3c565b565b6108246109a9565b600460009054906101000a900473ffffffffffffffffffffffffffffffffffffffff1673ffffffffffffffffffffffffffffffffffffffff166323b872dd3330846040518463ffffffff1660e01b815260040161088393929190611111565b6020604051808303816000875af11580156108a2573d6000803e3d6000fd5b505050506040513d601f19601f820116820180604052508101906108c69190611078565b610905576040517f08c379a00000000000000000000000000000000000000000000000000000000081526004016108fc906110f1565b60405180910390fd5b50565b6109106109a9565b600073ffffffffffffffffffffffffffffffffffffffff168173ffffffffffffffffffffffffffffffffffffffff160361097f576040517f08c379a0000000000000000000000000000000000000000000000000000000008152600401610976906111ba565b60405180910390fd5b61098881610a27565b50565b60026020528060005260406000206000915090505481565b60055481565b6109b1610b46565b73ffffffffffffffffffffffffffffffffffffffff166109cf610319565b73ffffffffffffffffffffffffffffffffffffffff1614610a25576040517f08c379a0000000000000000000000000000000000000000000000000000000008152600401610a1c90611226565b60405180910390fd5b565b6000600160009054906101000a900473ffffffffffffffffffffffffffffffffffffffff16905081600160006101000a81548173ffffffffffffffffffffffffffffffffffffffff021916908373ffffffffffffffffffffffffffffffffffffffff1602179055508173ffffffffffffffffffffffffffffffffffffffff168173ffffffffffffffffffffffffffffffffffffffff167f8be0079c531659141344cd1fd0a4f28419497f9722a3daafe3b4186f6b6457e060405160405180910390a35050565b600260005403610b32576040517f08c379a0000000000000000000000000000000000000000000000000000000008152600401610b2990611292565b60405180910390fd5b6002600081905550565b6001600081905550565b600033905090565b600080fd5b600073ffffffffffffffffffffffffffffffffffffffff82169050919050565b6000610b7e82610b53565b9050919050565b610b8e81610b73565b8114610b9957600080fd5b50565b600081359050610bab81610b85565b92915050565b600060208284031215610bc757610bc6610b4e565b5b6000610bd584828501610b9c565b91505092915050565b6000819050919050565b610bf181610bde565b82525050565b6000602082019050610c0c6000830184610be8565b92915050565b610c1b81610bde565b8114610c2657600080fd5b50565b600081359050610c3881610c12565b92915050565b600060208284031215610c5457610c53610b4e565b5b6000610c6284828501610c29565b91505092915050565b610c7481610b73565b82525050565b6000602082019050610c8f6000830184610c6b565b92915050565b6000819050919050565b6000610cba610cb5610cb084610b53565b610c95565b610b53565b9050919050565b6000610ccc82610c9f565b9050919050565b6000610cde82610cc1565b9050919050565b610cee81610cd3565b82525050565b6000602082019050610d096000830184610ce5565b92915050565b600082825260208201905092915050565b7f5072696365206d757374206265203e2030000000000000000000000000000000600082015250565b6000610d56601183610d0f565b9150610d6182610d20565b602082019050919050565b60006020820190508181036000830152610d8581610d49565b9050919050565b7f416d6f756e74206d7573742062652067726561746572207468616e2030000000600082015250565b6000610dc2601d83610d0f565b9150610dcd82610d8c565b602082019050919050565b60006020820190508181036000830152610df181610db5565b9050919050565b7f4e487b7100000000000000000000000000000000000000000000000000000000600052601160045260246000fd5b6000610e3282610bde565b9150610e3d83610bde565b9250828202610e4b81610bde565b91508282048414831517610e6257610e61610df8565b5b5092915050565b7f4e487b7100000000000000000000000000000000000000000000000000000000600052601260045260246000fd5b6000610ea382610bde565b9150610eae83610bde565b925082610ebe57610ebd610e69565b5b828204905092915050565b6000610ed482610bde565b9150610edf83610bde565b9250828201905080821115610ef757610ef6610df8565b5b92915050565b7f496e73756666696369656e7420636f6c6c61746572616c000000000000000000600082015250565b6000610f33601783610d0f565b9150610f3e82610efd565b602082019050919050565b60006020820190508181036000830152610f6281610f26565b9050919050565b600081519050610f7881610c12565b92915050565b600060208284031215610f9457610f93610b4e565b5b6000610fa284828501610f69565b91505092915050565b7f496e73756666696369656e7420706f6f6c206c69717569646974790000000000600082015250565b6000610fe1601b83610d0f565b9150610fec82610fab565b602082019050919050565b6000602082019050818103600083015261101081610fd4565b9050919050565b600060408201905061102c6000830185610c6b565b6110396020830184610be8565b9392505050565b60008115159050919050565b61105581611040565b811461106057600080fd5b50565b6000815190506110728161104c565b92915050565b60006020828403121561108e5761108d610b4e565b5b600061109c84828501611063565b91505092915050565b7f5472616e73666572206661696c65640000000000000000000000000000000000600082015250565b60006110db600f83610d0f565b91506110e6826110a5565b602082019050919050565b6000602082019050818103600083015261110a816110ce565b9050919050565b60006060820190506111266000830186610c6b565b6111336020830185610c6b565b6111406040830184610be8565b949350505050565b7f4f776e61626c653a206e6577206f776e657220697320746865207a65726f206160008201527f6464726573730000000000000000000000000000000000000000000000000000602082015250565b60006111a4602683610d0f565b91506111af82611148565b604082019050919050565b600060208201905081810360008301526111d381611197565b9050919050565b7f4f776e61626c653a2063616c6c6572206973206e6f7420746865206f776e6572600082015250565b6000611210602083610d0f565b915061121b826111da565b602082019050919050565b6000602082019050818103600083015261123f81611203565b9050919050565b7f5265656e7472616e637947756172643a207265656e7472616e742063616c6c00600082015250565b600061127c601f83610d0f565b915061128782611246565b602082019050919050565b600060208201905081810360008301526112ab8161126f565b905091905056fea2646970667358221220eb0727acf89d1b61ce65618db65c5fc1f2cb8cfa6bcbca8aad17a012f0d0efec64736f6c63430008140033",
  "linkReferences": {},
  "deployedLinkReferences": {}
}