{
  "_format": "hh-sol-artifact-1",
  "contractName": "LendingPool",
  "sourceName": "contracts/LendingPool.sol",
  "abi": [
    {
      "inputs": [
        {
          "internalType": "address",
          "name": "_lendingToken",
          "type": "address"
        },
        {
          "internalType": "uint256",
          "name": "_initialEthPrice",
          "type": "uint256"
        }
      ],
      "stateMutability": "nonpayable",
      "type": "constructor"
    },
    {
      "anonymous": false,
      "inputs": [
        {
          "indexed": true,
          "internalType": "address",
          "name": "user",
          "type": "address"
        },
        {
          "indexed": false,
          "internalType": "uint256",
          "name": "amount",
          "type": "uint256"
        }
      ],
      "name": "Borrow",
      "type": "event"
    },
    {
      "anonymous": false,
      "inputs": [
        {
          "indexed": true,
          "internalType": "address",
          "name": "user",
          "type": "address"
        },
        {
          "indexed": false,
          "internalType": "uint256",
          "name": "amount",
          "type": "uint256"
        }
      ],
      "name": "Deposit",
      "type": "event"
    },
    {
      "anonymous": false,
      "inputs": [
        {
          "indexed": true,
          "internalType": "address",
          "name": "previousOwner",
          "type": "address"
        },
        {
          "indexed": true,
          "internalType": "address",
          "name": "newOwner",
          "type": "address"
        }
      ],
      "name": "OwnershipTransferred",
      "type": "event"
    },
    {
      "anonymous": false,
      "inputs": [
        {
          "indexed": false,
          "internalType": "uint256",
          "name": "newPrice",
          "type": "uint256"
        }
      ],
      "name": "PriceUpdated",
      "type": "event"
    },
    {
      "anonymous": false,
      "inputs": [
        {
          "indexed": true,
          "internalType": "address",
          "name": "user",
          "type": "address"
        },
        {
          "indexed": false,
          "internalType": "uint256",
          "name": "amount",
          "type": "uint256"
        }
      ],
      "name": "Repay",
      "type": "event"
    },
    {
      "inputs": [
        {
          "internalType": "uint256",
          "name": "amount",
          "type": "uint256"
        }
      ],
      "name": "borrow",
      "outputs": [],
      "stateMutability": "nonpayable",
      "type": "function"
    },
    {
      "inputs": [
        {
          "internalType": "uint256",
          "name": "",
          "type": "uint256"
        }
      ],
      "name": "borrowers",
      "outputs": [
        {
          "internalType": "address",
          "name": "",
          "type": "address"
        }
      ],
      "stateMutability": "view",
      "type": "function"
    },
    {
      "inputs": [],
      "name": "deposit",
      "outputs": [],
      "stateMutability": "payable",
      "type": "function"
    },
    {
      "inputs": [
        {
          "internalType": "address",
          "name": "",
          "type": "address"
        }
      ],
      "name": "deposits",
      "outputs": [
        {
          "internalType": "uint256",
          "name": "",
          "type": "uint256"
        }
      ],
      "stateMutability": "view",
      "type": "function"
    },
    {
      "inputs": [],
      "name": "ethPrice",
      "outputs": [
        {
          "internalType": "uint256",
          "name": "",
          "type": "uint256"
        }
      ],
      "stateMutability": "view",
      "type": "function"
    },
    {
      "inputs": [
        {
          "internalType": "uint256",
          "name": "amount",
          "type": "uint256"
        }
      ],
      "name": "fundPool",
      "outputs": [],
      "stateMutability": "nonpayable",
      "type": "function"
    },
    {
      "inputs": [],
      "name": "getBorrowers",
      "outputs": [
        {
          "internalType": "address[]",
          "name": "",
          "type": "address[]"
        }
      ],
      "stateMutability": "view",
      "type": "function"
    },
    {
      "inputs": [
        {
          "internalType": "address",
          "name": "",
          "type": "address"
        }
      ],
      "name": "hasBorrowed",
      "outputs": [
        {
          "internalType": "bool",
          "name": "",
          "type": "bool"
        }
      ],
      "stateMutability": "view",
      "type": "function"
    },
    {
      "inputs": [],
      "name": "lendingToken",
      "outputs": [
        {
          "internalType": "contract IERC20",
          "name": "",
          "type": "address"
        }
      ],
      "stateMutability": "view",
      "type": "function"
    },
    {
      "inputs": [
        {
          "internalType": "address",
          "name": "user",
          "type": "address"
        }
      ],
      "name": "liquidate",
      "outputs": [],
      "stateMutability": "nonpayable",
      "type": "function"
    },
    {
      "inputs": [
        {
          "internalType": "address",
          "name": "",
          "type": "address"
        }
      ],
      "name": "loans",
      "outputs": [
        {
          "internalType": "uint256",
          "name": "",
          "type": "uint256"
        }
      ],
      "stateMutability": "view",
      "type": "function"
    },
    {
      "inputs": [],
      "name": "owner",
      "outputs": [
        {
          "internalType": "address",
          "name": "",
          "type": "address"
        }
      ],
      "stateMutability": "view",
      "type": "function"
    },
    {
      "inputs": [],
      "name": "renounceOwnership",
      "outputs": [],
      "stateMutability": "nonpayable",
      "type": "function"
    },
    {
      "inputs": [
        {
          "internalType": "uint256",
          "name": "amount",
          "type": "uint256"
        }
      ],
      "name": "repay",
      "outputs": [],
      "stateMutability": "nonpayable",
      "type": "function"
    },
    {
      "inputs": [
        {
          "internalType": "address",
          "name": "newOwner",
          "type": "address"
        }
      ],
      "name": "transferOwnership",
      "outputs": [],
      "stateMutability": "nonpayable",
      "type": "function"
    },
    {
      "inputs": [
        {
          "internalType": "uint256",
          "name": "_newPrice",
          "type": "uint256"
        }
      ],
      "name": "updatePrice",
      "outputs": [],
      "stateMutability": "nonpayable",
      "type": "function"
    }
  ],
  "bytecode": "0x60806040523480156200001157600080fd5b506040516200235238038062002352833981810160405281019062000037919062000222565b60016000819055506200005f62000053620000af60201b60201c565b620000b760201b60201c565b81600460006101000a81548173ffffffffffffffffffffffffffffffffffffffff021916908373ffffffffffffffffffffffffffffffffffffffff16021790555080600581905550505062000269565b600033905090565b6000600160009054906101000a900473ffffffffffffffffffffffffffffffffffffffff16905081600160006101000a81548173ffffffffffffffffffffffffffffffffffffffff021916908373ffffffffffffffffffffffffffffffffffffffff1602179055508173ffffffffffffffffffffffffffffffffffffffff168173ffffffffffffffffffffffffffffffffffffffff167f8be0079c531659141344cd1fd0a4f28419497f9722a3daafe3b4186f6b6457e060405160405180910390a35050565b600080fd5b600073ffffffffffffffffffffffffffffffffffffffff82169050919050565b6000620001af8262000182565b9050919050565b620001c181620001a2565b8114620001cd57600080fd5b50565b600081519050620001e181620001b6565b92915050565b6000819050919050565b620001fc81620001e7565b81146200020857600080fd5b50565b6000815190506200021c81620001f1565b92915050565b600080604083850312156200023c576200023b6200017d565b5b60006200024c85828601620001d0565b92505060206200025f858286016200020b565b9150509250929050565b6120d980620002796000396000f3fe6080604052600436106100f35760003560e01c8063a6a9ef021161008a578063da3a5f7211610059578063da3a5f72146102f5578063f2fde38b1461031e578063fc7e286d14610347578063ff186b2e14610384576100f3565b8063a6a9ef021461025a578063aaaca55814610297578063c5ebeaec146102c2578063d0e30db0146102eb576100f3565b806373b4086b116100c657806373b4086b1461018c5780637924d93f146101c95780638d6cc56d146102065780638da5cb5b1461022f576100f3565b80632f865568146100f8578063371fd8e6146101215780636854786a1461014a578063715018a614610175575b600080fd5b34801561010457600080fd5b5061011f600480360381019061011a9190611596565b6103af565b005b34801561012d57600080fd5b50610148600480360381019061014391906115f9565b6107ef565b005b34801561015657600080fd5b5061015f610a4c565b60405161016c91906116e4565b60405180910390f35b34801561018157600080fd5b5061018a610ada565b005b34801561019857600080fd5b506101b360048036038101906101ae9190611596565b610aee565b6040516101c09190611715565b60405180910390f35b3480156101d557600080fd5b506101f060048036038101906101eb91906115f9565b610b06565b6040516101fd919061173f565b60405180910390f35b34801561021257600080fd5b5061022d600480360381019061022891906115f9565b610b45565b005b34801561023b57600080fd5b50610244610bd1565b604051610251919061173f565b60405180910390f35b34801561026657600080fd5b50610281600480360381019061027c9190611596565b610bfb565b60405161028e9190611775565b60405180910390f35b3480156102a357600080fd5b506102ac610c1b565b6040516102b991906117ef565b60405180910390f35b3480156102ce57600080fd5b506102e960048036038101906102e491906115f9565b610c41565b005b6102f3611108565b005b34801561030157600080fd5b5061031c600480360381019061031791906115f9565b611201565b005b34801561032a57600080fd5b5061034560048036038101906103409190611596565b6112ed565b005b34801561035357600080fd5b5061036e60048036038101906103699190611596565b611370565b60405161037b9190611715565b60405180910390f35b34801561039057600080fd5b50610399611388565b6040516103a69190611715565b60405180910390f35b6103b761138e565b6000600360008373ffffffffffffffffffffffffffffffffffffffff1673ffffffffffffffffffffffffffffffffffffffff1681526020019081526020016000205490506000811161043e576040517f08c379a000000000000000000000000000000000000000000000000000000000815260040161043590611867565b60405180910390fd5b6000600260008473ffffffffffffffffffffffffffffffffffffffff1673ffffffffffffffffffffffffffffffffffffffff16815260200190815260200160002054905060006005548261049291906118b6565b9050600060646050836104a591906118b6565b6104af9190611927565b90508084116104f3576040517f08c379a00000000000000000000000000000000000000000000000000000000081526004016104ea906119a4565b60405180910390fd5b6000600554856105039190611927565b905060006064600a8361051691906118b6565b6105209190611927565b90506000818361053091906119c4565b905080600260008a73ffffffffffffffffffffffffffffffffffffffff1673ffffffffffffffffffffffffffffffffffffffff1681526020019081526020016000205410156105b4576040517f08c379a00000000000000000000000000000000000000000000000000000000081526004016105ab90611a44565b60405180910390fd5b600460009054906101000a900473ffffffffffffffffffffffffffffffffffffffff1673ffffffffffffffffffffffffffffffffffffffff166323b872dd33308a6040518463ffffffff1660e01b815260040161061393929190611a64565b6020604051808303816000875af1158015610632573d6000803e3d6000fd5b505050506040513d601f19601f820116820180604052508101906106569190611ac7565b610695576040517f08c379a000000000000000000000000000000000000000000000000000000000815260040161068c90611b40565b60405180910390fd5b6000600360008a73ffffffffffffffffffffffffffffffffffffffff1673ffffffffffffffffffffffffffffffffffffffff1681526020019081526020016000208190555080600260008a73ffffffffffffffffffffffffffffffffffffffff1673ffffffffffffffffffffffffffffffffffffffff16815260200190815260200160002060008282546107299190611b60565b9250508190555060003373ffffffffffffffffffffffffffffffffffffffff168260405161075690611bc5565b60006040518083038185875af1925050503d8060008114610793576040519150601f19603f3d011682016040523d82523d6000602084013e610798565b606091505b50509050806107dc576040517f08c379a00000000000000000000000000000000000000000000000000000000081526004016107d390611c26565b60405180910390fd5b50505050505050506107ec6113dd565b50565b6107f761138e565b6000811161083a576040517f08c379a000000000000000000000000000000000000000000000000000000000815260040161083190611c92565b60405180910390fd5b80600360003373ffffffffffffffffffffffffffffffffffffffff1673ffffffffffffffffffffffffffffffffffffffff1681526020019081526020016000205410156108bc576040517f08c379a00000000000000000000000000000000000000000000000000000000081526004016108b390611cfe565b60405180910390fd5b80600360003373ffffffffffffffffffffffffffffffffffffffff1673ffffffffffffffffffffffffffffffffffffffff168152602001908152602001600020600082825461090b9190611b60565b92505081905550600460009054906101000a900473ffffffffffffffffffffffffffffffffffffffff1673ffffffffffffffffffffffffffffffffffffffff166323b872dd3330846040518463ffffffff1660e01b815260040161097193929190611a64565b6020604051808303816000875af1158015610990573d6000803e3d6000fd5b505050506040513d601f19601f820116820180604052508101906109b49190611ac7565b6109f3576040517f08c379a00000000000000000000000000000000000000000000000000000000081526004016109ea90611d6a565b60405180910390fd5b3373ffffffffffffffffffffffffffffffffffffffff167f5c16de4f8b59bd9caf0f49a545f25819a895ed223294290b408242e72a59423182604051610a399190611715565b60405180910390a2610a496113dd565b50565b60606006805480602002602001604051908101604052809291908181526020018280548015610ad057602002820191906000526020600020905b8160009054906101000a900473ffffffffffffffffffffffffffffffffffffffff1673ffffffffffffffffffffffffffffffffffffffff1681526020019060010190808311610a86575b5050505050905090565b610ae26113e7565b610aec6000611465565b565b60036020528060005260406000206000915090505481565b60068181548110610b1657600080fd5b906000526020600020016000915054906101000a900473ffffffffffffffffffffffffffffffffffffffff1681565b610b4d6113e7565b60008111610b90576040517f08c379a0000000000000000000000000000000000000000000000000000000008152600401610b8790611dd6565b60405180910390fd5b806005819055507f66cbca4f3c64fecf1dcb9ce094abcf7f68c3450a1d4e3a8e917dd621edb4ebe081604051610bc69190611715565b60405180910390a150565b6000600160009054906101000a900473ffffffffffffffffffffffffffffffffffffffff16905090565b60076020528060005260406000206000915054906101000a900460ff1681565b600460009054906101000a900473ffffffffffffffffffffffffffffffffffffffff1681565b610c4961138e565b60008111610c8c576040517f08c379a0000000000000000000000000000000000000000000000000000000008152600401610c8390611c92565b60405180910390fd5b6000600260003373ffffffffffffffffffffffffffffffffffffffff1673ffffffffffffffffffffffffffffffffffffffff168152602001908152602001600020549050600060055482610ce091906118b6565b905060006064605083610cf391906118b6565b610cfd9190611927565b90508084600360003373ffffffffffffffffffffffffffffffffffffffff1673ffffffffffffffffffffffffffffffffffffffff16815260200190815260200160002054610d4b91906119c4565b1115610d8c576040517f08c379a0000000000000000000000000000000000000000000000000000000008152600401610d8390611e42565b60405180910390fd5b83600460009054906101000a900473ffffffffffffffffffffffffffffffffffffffff1673ffffffffffffffffffffffffffffffffffffffff166370a08231306040518263ffffffff1660e01b8152600401610de8919061173f565b602060405180830381865afa158015610e05573d6000803e3d6000fd5b505050506040513d601f19601f82011682018060405250810190610e299190611e77565b1015610e6a576040517f08c379a0000000000000000000000000000000000000000000000000000000008152600401610e6190611ef0565b60405180910390fd5b83600360003373ffffffffffffffffffffffffffffffffffffffff1673ffffffffffffffffffffffffffffffffffffffff1681526020019081526020016000206000828254610eb991906119c4565b92505081905550600760003373ffffffffffffffffffffffffffffffffffffffff1673ffffffffffffffffffffffffffffffffffffffff16815260200190815260200160002060009054906101000a900460ff16610fcd576006339080600181540180825580915050600190039060005260206000200160009091909190916101000a81548173ffffffffffffffffffffffffffffffffffffffff021916908373ffffffffffffffffffffffffffffffffffffffff1602179055506001600760003373ffffffffffffffffffffffffffffffffffffffff1673ffffffffffffffffffffffffffffffffffffffff16815260200190815260200160002060006101000a81548160ff0219169083151502179055505b600460009054906101000a900473ffffffffffffffffffffffffffffffffffffffff1673ffffffffffffffffffffffffffffffffffffffff1663a9059cbb33866040518363ffffffff1660e01b815260040161102a929190611f10565b6020604051808303816000875af1158015611049573d6000803e3d6000fd5b505050506040513d601f19601f8201168201806040525081019061106d9190611ac7565b6110ac576040517f08c379a00000000000000000000000000000000000000000000000000000000081526004016110a390611d6a565b60405180910390fd5b3373ffffffffffffffffffffffffffffffffffffffff167fcbc04eca7e9da35cb1393a6135a199ca52e450d5e9251cbd99f7847d33a36750856040516110f29190611715565b60405180910390a25050506111056113dd565b50565b61111061138e565b60003411611153576040517f08c379a000000000000000000000000000000000000000000000000000000000815260040161114a90611c92565b60405180910390fd5b34600260003373ffffffffffffffffffffffffffffffffffffffff1673ffffffffffffffffffffffffffffffffffffffff16815260200190815260200160002060008282546111a291906119c4565b925050819055503373ffffffffffffffffffffffffffffffffffffffff167fe1fffcc4923d04b559f4d29a8bfc6cda04eb5b0d3c460751c2402c5c5cc9109c346040516111ef9190611715565b60405180910390a26111ff6113dd565b565b6112096113e7565b600460009054906101000a900473ffffffffffffffffffffffffffffffffffffffff1673ffffffffffffffffffffffffffffffffffffffff166323b872dd3330846040518463ffffffff1660e01b815260040161126893929190611a64565b6020604051808303816000875af1158015611287573d6000803e3d6000fd5b505050506040513d601f19601f820116820180604052508101906112ab9190611ac7565b6112ea576040517f08c379a00000000000000000000000000000000000000000000000000000000081526004016112e190611d6a565b60405180910390fd5b50565b6112f56113e7565b600073ffffffffffffffffffffffffffffffffffffffff168173ffffffffffffffffffffffffffffffffffffffff1603611364576040517f08c379a000000000000000000000000000000000000000000000000000000000815260040161135b90611fab565b60405180910390fd5b61136d81611465565b50565b60026020528060005260406000206000915090505481565b60055481565b6002600054036113d3576040517f08c379a00000000000000000000000000000000000000000000000000000000081526004016113ca90612017565b60405180910390fd5b6002600081905550565b6001600081905550565b6113ef61152b565b73ffffffffffffffffffffffffffffffffffffffff1661140d610bd1565b73ffffffffffffffffffffffffffffffffffffffff1614611463576040517f08c379a000000000000000000000000000000000000000000000000000000000815260040161145a90612083565b60405180910390fd5b565b6000600160009054906101000a900473ffffffffffffffffffffffffffffffffffffffff16905081600160006101000a81548173ffffffffffffffffffffffffffffffffffffffff021916908373ffffffffffffffffffffffffffffffffffffffff1602179055508173ffffffffffffffffffffffffffffffffffffffff168173ffffffffffffffffffffffffffffffffffffffff167f8be0079c531659141344cd1fd0a4f28419497f9722a3daafe3b4186f6b6457e060405160405180910390a35050565b600033905090565b600080fd5b600073ffffffffffffffffffffffffffffffffffffffff82169050919050565b600061156382611538565b9050919050565b61157381611558565b811461157e57600080fd5b50565b6000813590506115908161156a565b92915050565b6000602082840312156115ac576115ab611533565b5b60006115ba84828501611581565b91505092915050565b6000819050919050565b6115d6816115c3565b81146115e157600080fd5b50565b6000813590506115f3816115cd565b92915050565b60006020828403121561160f5761160e611533565b5b600061161d848285016115e4565b91505092915050565b600081519050919050565b600082825260208201905092915050565b6000819050602082019050919050565b61165b81611558565b82525050565b600061166d8383611652565b60208301905092915050565b6000602082019050919050565b600061169182611626565b61169b8185611631565b93506116a683611642565b8060005b838110156116d75781516116be8882611661565b97506116c983611679565b9250506001810190506116aa565b5085935050505092915050565b600060208201905081810360008301526116fe8184611686565b905092915050565b61170f816115c3565b82525050565b600060208201905061172a6000830184611706565b92915050565b61173981611558565b82525050565b60006020820190506117546000830184611730565b92915050565b60008115159050919050565b61176f8161175a565b82525050565b600060208201905061178a6000830184611766565b92915050565b6000819050919050565b60006117b56117b06117ab84611538565b611790565b611538565b9050919050565b60006117c78261179a565b9050919050565b60006117d9826117bc565b9050919050565b6117e9816117ce565b82525050565b600060208201905061180460008301846117e0565b92915050565b600082825260208201905092915050565b7f4e6f206465627420746f206c6971756964617465000000000000000000000000600082015250565b600061185160148361180a565b915061185c8261181b565b602082019050919050565b6000602082019050818103600083015261188081611844565b9050919050565b7f4e487b7100000000000000000000000000000000000000000000000000000000600052601160045260246000fd5b60006118c1826115c3565b91506118cc836115c3565b92508282026118da816115c3565b915082820484148315176118f1576118f0611887565b5b5092915050565b7f4e487b7100000000000000000000000000000000000000000000000000000000600052601260045260246000fd5b6000611932826115c3565b915061193d836115c3565b92508261194d5761194c6118f8565b5b828204905092915050565b7f4865616c746820466163746f72206973203e3d20310000000000000000000000600082015250565b600061198e60158361180a565b915061199982611958565b602082019050919050565b600060208201905081810360008301526119bd81611981565b9050919050565b60006119cf826115c3565b91506119da836115c3565b92508282019050808211156119f2576119f1611887565b5b92915050565b7f496e73756666696369656e7420636f6c6c61746572616c20746f207365697a65600082015250565b6000611a2e60208361180a565b9150611a39826119f8565b602082019050919050565b60006020820190508181036000830152611a5d81611a21565b9050919050565b6000606082019050611a796000830186611730565b611a866020830185611730565b611a936040830184611706565b949350505050565b611aa48161175a565b8114611aaf57600080fd5b50565b600081519050611ac181611a9b565b92915050565b600060208284031215611add57611adc611533565b5b6000611aeb84828501611ab2565b91505092915050565b7f546f6b656e207472616e73666572206661696c65640000000000000000000000600082015250565b6000611b2a60158361180a565b9150611b3582611af4565b602082019050919050565b60006020820190508181036000830152611b5981611b1d565b9050919050565b6000611b6b826115c3565b9150611b76836115c3565b9250828203905081811115611b8e57611b8d611887565b5b92915050565b600081905092915050565b50565b6000611baf600083611b94565b9150611bba82611b9f565b600082019050919050565b6000611bd082611ba2565b9150819050919050565b7f455448207472616e73666572206661696c656400000000000000000000000000600082015250565b6000611c1060138361180a565b9150611c1b82611bda565b602082019050919050565b60006020820190508181036000830152611c3f81611c03565b9050919050565b7f416d6f756e74206d7573742062652067726561746572207468616e2030000000600082015250565b6000611c7c601d8361180a565b9150611c8782611c46565b602082019050919050565b60006020820190508181036000830152611cab81611c6f565b9050919050565b7f416d6f756e742065786365656473206465627400000000000000000000000000600082015250565b6000611ce860138361180a565b9150611cf382611cb2565b602082019050919050565b60006020820190508181036000830152611d1781611cdb565b9050919050565b7f5472616e73666572206661696c65640000000000000000000000000000000000600082015250565b6000611d54600f8361180a565b9150611d5f82611d1e565b602082019050919050565b60006020820190508181036000830152611d8381611d47565b9050919050565b7f5072696365206d757374206265203e2030000000000000000000000000000000600082015250565b6000611dc060118361180a565b9150611dcb82611d8a565b602082019050919050565b60006020820190508181036000830152611def81611db3565b9050919050565b7f496e73756666696369656e7420636f6c6c61746572616c000000000000000000600082015250565b6000611e2c60178361180a565b9150611e3782611df6565b602082019050919050565b60006020820190508181036000830152611e5b81611e1f565b9050919050565b600081519050611e71816115cd565b92915050565b600060208284031215611e8d57611e8c611533565b5b6000611e9b84828501611e62565b91505092915050565b7f496e73756666696369656e7420706f6f6c206c69717569646974790000000000600082015250565b6000611eda601b8361180a565b9150611ee582611ea4565b602082019050919050565b60006020820190508181036000830152611f0981611ecd565b9050919050565b6000604082019050611f256000830185611730565b611f326020830184611706565b9392505050565b7f4f776e61626c653a206e6577206f776e657220697320746865207a65726f206160008201527f6464726573730000000000000000000000000000000000000000000000000000602082015250565b6000611f9560268361180a565b9150611fa082611f39565b604082019050919050565b60006020820190508181036000830152611fc481611f88565b9050919050565b7f5265656e7472616e637947756172643a207265656e7472616e742063616c6c00600082015250565b6000612001601f8361180a565b915061200c82611fcb565b602082019050919050565b6000602082019050818103600083015261203081611ff4565b9050919050565b7f4f776e61626c653a2063616c6c6572206973206e6f7420746865206f776e6572600082015250565b600061206d60208361180a565b915061207882612037565b602082019050919050565b6000602082019050818103600083015261209c81612060565b905091905056fea26469706673582212202f2dfd3219c43f6606effe8f4ba3563f1604093ab05decd2ae8a69528056816a64736f6c63430008140033",
  "linkReferences": {},
  "deployedLinkReferences": {}
}