{
  "_format": "hh-sol-artifact-1",
  "contractName": "LendingPool",
  "sourceName": "contracts/LendingPool.sol",
  "abi": [
    {
      "inputs": [
        {
          "internalType": "address",
          "name": "_lendingToken",
          "type": "address"
        },
        {
          "internalType": "uint256",
          "name": "_initialEthPrice",
          "type": "uint256"
        }
      ],
      "stateMutability": "nonpayable",
      "type": "constructor"
    },
    {
      "anonymous": false,
      "inputs": [
        {
          "indexed": true,
          "internalType": "address",
          "name": "user",
          "type": "address"
        },
        {
          "indexed": false,
          "internalType": "uint256",
          "name": "amount",
          "type": "uint256"
        }
      ],
      "name": "Borrow",
      "type": "event"
    },
    {
      "anonymous": false,
      "inputs": [
        {
          "indexed": true,
          "internalType": "address",
          "name": "user",
          "type": "address"
        },
        {
          "indexed": false,
          "internalType": "uint256",
          "name": "amount",
          "type": "uint256"
        }
      ],
      "name": "Deposit",
      "type": "event"
    },
    {
      "anonymous": false,
      "inputs": [
        {
          "indexed": false,
          "internalType": "uint256",
          "name": "borrowIndex",
          "type": "uint256"
        },
        {
          "indexed": false,
          "internalType": "uint256",
          "name": "supplyIndex",
          "type": "uint256"
        },
        {
          "indexed": false,
          "internalType": "uint256",
          "name": "totalBorrows",
          "type": "uint256"
        }
      ],
      "name": "InterestAccrued",
      "type": "event"
    },
    {
      "anonymous": false,
      "inputs": [
        {
          "indexed": false,
          "internalType": "uint256",
          "name": "baseRate",
          "type": "uint256"
        },
        {
          "indexed": false,
          "internalType": "uint256",
          "name": "multiplier",
          "type": "uint256"
        }
      ],
      "name": "InterestParamsUpdated",
      "type": "event"
    },
    {
      "anonymous": false,
      "inputs": [
        {
          "indexed": true,
          "internalType": "address",
          "name": "previousOwner",
          "type": "address"
        },
        {
          "indexed": true,
          "internalType": "address",
          "name": "newOwner",
          "type": "address"
        }
      ],
      "name": "OwnershipTransferred",
      "type": "event"
    },
    {
      "anonymous": false,
      "inputs": [
        {
          "indexed": false,
          "internalType": "uint256",
          "name": "newPrice",
          "type": "uint256"
        }
      ],
      "name": "PriceUpdated",
      "type": "event"
    },
    {
      "anonymous": false,
      "inputs": [
        {
          "indexed": true,
          "internalType": "address",
          "name": "user",
          "type": "address"
        },
        {
          "indexed": false,
          "internalType": "uint256",
          "name": "amount",
          "type": "uint256"
        }
      ],
      "name": "Repay",
      "type": "event"
    },
    {
      "anonymous": false,
      "inputs": [
        {
          "indexed": true,
          "internalType": "address",
          "name": "user",
          "type": "address"
        },
        {
          "indexed": false,
          "internalType": "uint256",
          "name": "amount",
          "type": "uint256"
        }
      ],
      "name": "Supply",
      "type": "event"
    },
    {
      "anonymous": false,
      "inputs": [
        {
          "indexed": true,
          "internalType": "address",
          "name": "user",
          "type": "address"
        },
        {
          "indexed": false,
          "internalType": "uint256",
          "name": "amount",
          "type": "uint256"
        }
      ],
      "name": "Withdraw",
      "type": "event"
    },
    {
      "anonymous": false,
      "inputs": [
        {
          "indexed": true,
          "internalType": "address",
          "name": "user",
          "type": "address"
        },
        {
          "indexed": false,
          "internalType": "uint256",
          "name": "amount",
          "type": "uint256"
        }
      ],
      "name": "WithdrawSupply",
      "type": "event"
    },
    {
      "inputs": [],
      "name": "BASE_RATE_PER_SECOND",
      "outputs": [
        {
          "internalType": "uint256",
          "name": "",
          "type": "uint256"
        }
      ],
      "stateMutability": "view",
      "type": "function"
    },
    {
      "inputs": [],
      "name": "MULTIPLIER_PER_SECOND",
      "outputs": [
        {
          "internalType": "uint256",
          "name": "",
          "type": "uint256"
        }
      ],
      "stateMutability": "view",
      "type": "function"
    },
    {
      "inputs": [],
      "name": "WAD",
      "outputs": [
        {
          "internalType": "uint256",
          "name": "",
          "type": "uint256"
        }
      ],
      "stateMutability": "view",
      "type": "function"
    },
    {
      "inputs": [],
      "name": "accrueInterest",
      "outputs": [],
      "stateMutability": "nonpayable",
      "type": "function"
    },
    {
      "inputs": [
        {
          "internalType": "uint256",
          "name": "amount",
          "type": "uint256"
        }
      ],
      "name": "borrow",
      "outputs": [],
      "stateMutability": "nonpayable",
      "type": "function"
    },
    {
      "inputs": [],
      "name": "borrowIndex",
      "outputs": [
        {
          "internalType": "uint256",
          "name": "",
          "type": "uint256"
        }
      ],
      "stateMutability": "view",
      "type": "function"
    },
    {
      "inputs": [
        {
          "internalType": "uint256",
          "name": "",
          "type": "uint256"
        }
      ],
      "name": "borrowers",
      "outputs": [
        {
          "internalType": "address",
          "name": "",
          "type": "address"
        }
      ],
      "stateMutability": "view",
      "type": "function"
    },
    {
      "inputs": [],
      "name": "deposit",
      "outputs": [],
      "stateMutability": "payable",
      "type": "function"
    },
    {
      "inputs": [
        {
          "internalType": "address",
          "name": "",
          "type": "address"
        }
      ],
      "name": "deposits",
      "outputs": [
        {
          "internalType": "uint256",
          "name": "",
          "type": "uint256"
        }
      ],
      "stateMutability": "view",
      "type": "function"
    },
    {
      "inputs": [],
      "name": "ethPrice",
      "outputs": [
        {
          "internalType": "uint256",
          "name": "",
          "type": "uint256"
        }
      ],
      "stateMutability": "view",
      "type": "function"
    },
    {
      "inputs": [
        {
          "internalType": "uint256",
          "name": "amount",
          "type": "uint256"
        }
      ],
      "name": "fundPool",
      "outputs": [],
      "stateMutability": "nonpayable",
      "type": "function"
    },
    {
      "inputs": [],
      "name": "getBorrowers",
      "outputs": [
        {
          "internalType": "address[]",
          "name": "",
          "type": "address[]"
        }
      ],
      "stateMutability": "view",
      "type": "function"
    },
    {
      "inputs": [
        {
          "internalType": "address",
          "name": "user",
          "type": "address"
        }
      ],
      "name": "getUserBorrowBalance",
      "outputs": [
        {
          "internalType": "uint256",
          "name": "",
          "type": "uint256"
        }
      ],
      "stateMutability": "view",
      "type": "function"
    },
    {
      "inputs": [
        {
          "internalType": "address",
          "name": "user",
          "type": "address"
        }
      ],
      "name": "getUserSupplyBalance",
      "outputs": [
        {
          "internalType": "uint256",
          "name": "",
          "type": "uint256"
        }
      ],
      "stateMutability": "view",
      "type": "function"
    },
    {
      "inputs": [
        {
          "internalType": "address",
          "name": "",
          "type": "address"
        }
      ],
      "name": "hasBorrowed",
      "outputs": [
        {
          "internalType": "bool",
          "name": "",
          "type": "bool"
        }
      ],
      "stateMutability": "view",
      "type": "function"
    },
    {
      "inputs": [],
      "name": "lastAccrualTimestamp",
      "outputs": [
        {
          "internalType": "uint256",
          "name": "",
          "type": "uint256"
        }
      ],
      "stateMutability": "view",
      "type": "function"
    },
    {
      "inputs": [],
      "name": "lendingToken",
      "outputs": [
        {
          "internalType": "contract IERC20",
          "name": "",
          "type": "address"
        }
      ],
      "stateMutability": "view",
      "type": "function"
    },
    {
      "inputs": [
        {
          "internalType": "address",
          "name": "user",
          "type": "address"
        }
      ],
      "name": "liquidate",
      "outputs": [],
      "stateMutability": "nonpayable",
      "type": "function"
    },
    {
      "inputs": [
        {
          "internalType": "address",
          "name": "",
          "type": "address"
        }
      ],
      "name": "loans",
      "outputs": [
        {
          "internalType": "uint256",
          "name": "",
          "type": "uint256"
        }
      ],
      "stateMutability": "view",
      "type": "function"
    },
    {
      "inputs": [],
      "name": "owner",
      "outputs": [
        {
          "internalType": "address",
          "name": "",
          "type": "address"
        }
      ],
      "stateMutability": "view",
      "type": "function"
    },
    {
      "inputs": [],
      "name": "renounceOwnership",
      "outputs": [],
      "stateMutability": "nonpayable",
      "type": "function"
    },
    {
      "inputs": [
        {
          "internalType": "uint256",
          "name": "amount",
          "type": "uint256"
        }
      ],
      "name": "repay",
      "outputs": [],
      "stateMutability": "nonpayable",
      "type": "function"
    },
    {
      "inputs": [
        {
          "internalType": "uint256",
          "name": "_baseRatePerSecond",
          "type": "uint256"
        },
        {
          "internalType": "uint256",
          "name": "_multiplierPerSecond",
          "type": "uint256"
        }
      ],
      "name": "setInterestParameters",
      "outputs": [],
      "stateMutability": "nonpayable",
      "type": "function"
    },
    {
      "inputs": [
        {
          "internalType": "address",
          "name": "",
          "type": "address"
        }
      ],
      "name": "suppliedTokens",
      "outputs": [
        {
          "internalType": "uint256",
          "name": "",
          "type": "uint256"
        }
      ],
      "stateMutability": "view",
      "type": "function"
    },
    {
      "inputs": [
        {
          "internalType": "uint256",
          "name": "amount",
          "type": "uint256"
        }
      ],
      "name": "supply",
      "outputs": [],
      "stateMutability": "nonpayable",
      "type": "function"
    },
    {
      "inputs": [],
      "name": "supplyIndex",
      "outputs": [
        {
          "internalType": "uint256",
          "name": "",
          "type": "uint256"
        }
      ],
      "stateMutability": "view",
      "type": "function"
    },
    {
      "inputs": [],
      "name": "totalBorrowsGlobal",
      "outputs": [
        {
          "internalType": "uint256",
          "name": "",
          "type": "uint256"
        }
      ],
      "stateMutability": "view",
      "type": "function"
    },
    {
      "inputs": [
        {
          "internalType": "address",
          "name": "newOwner",
          "type": "address"
        }
      ],
      "name": "transferOwnership",
      "outputs": [],
      "stateMutability": "nonpayable",
      "type": "function"
    },
    {
      "inputs": [
        {
          "internalType": "uint256",
          "name": "_newPrice",
          "type": "uint256"
        }
      ],
      "name": "updatePrice",
      "outputs": [],
      "stateMutability": "nonpayable",
      "type": "function"
    },
    {
      "inputs": [
        {
          "internalType": "address",
          "name": "",
          "type": "address"
        }
      ],
      "name": "userBorrowIndex",
      "outputs": [
        {
          "internalType": "uint256",
          "name": "",
          "type": "uint256"
        }
      ],
      "stateMutability": "view",
      "type": "function"
    },
    {
      "inputs": [
        {
          "internalType": "address",
          "name": "",
          "type": "address"
        }
      ],
      "name": "userSupplyIndex",
      "outputs": [
        {
          "internalType": "uint256",
          "name": "",
          "type": "uint256"
        }
      ],
      "stateMutability": "view",
      "type": "function"
    },
    {
      "inputs": [
        {
          "internalType": "uint256",
          "name": "amount",
          "type": "uint256"
        }
      ],
      "name": "withdraw",
      "outputs": [],
      "stateMutability": "nonpayable",
      "type": "function"
    },
    {
      "inputs": [
        {
          "internalType": "uint256",
          "name": "amount",
          "type": "uint256"
        }
      ],
      "name": "withdrawSupply",
      "outputs": [],
      "stateMutability": "nonpayable",
      "type": "function"
    }
  ],
  "bytecode": "0x6080604052670de0b6b3a7640000600455670de0b6b3a7640000600555635e80a6bf600a5564017a029afc600b553480156200003a57600080fd5b50604051620040a1380380620040a1833981810160405281019062000060919062000252565b6001600081905550620000886200007c620000df60201b60201c565b620000e760201b60201c565b81600c60006101000a81548173ffffffffffffffffffffffffffffffffffffffff021916908373ffffffffffffffffffffffffffffffffffffffff16021790555080600d8190555042600681905550505062000299565b600033905090565b6000600160009054906101000a900473ffffffffffffffffffffffffffffffffffffffff16905081600160006101000a81548173ffffffffffffffffffffffffffffffffffffffff021916908373ffffffffffffffffffffffffffffffffffffffff1602179055508173ffffffffffffffffffffffffffffffffffffffff168173ffffffffffffffffffffffffffffffffffffffff167f8be0079c531659141344cd1fd0a4f28419497f9722a3daafe3b4186f6b6457e060405160405180910390a35050565b600080fd5b600073ffffffffffffffffffffffffffffffffffffffff82169050919050565b6000620001df82620001b2565b9050919050565b620001f181620001d2565b8114620001fd57600080fd5b50565b6000815190506200021181620001e6565b92915050565b6000819050919050565b6200022c8162000217565b81146200023857600080fd5b50565b6000815190506200024c8162000221565b92915050565b600080604083850312156200026c576200026b620001ad565b5b60006200027c8582860162000200565b92505060206200028f858286016200023b565b9150509250929050565b613df880620002a96000396000f3fe6080604052600436106101ee5760003560e01c806398f1bc121161010d578063c5ebeaec116100a0578063f2fde38b1161006f578063f2fde38b146106ca578063f3c78e70146106f3578063fa4bfde914610730578063fc7e286d1461075b578063ff186b2e14610798576101ee565b8063c5ebeaec14610631578063d0e30db01461065a578063da3a5f7214610664578063e9bd7eef1461068d576101ee565b8063aaaca558116100dc578063aaaca55814610575578063b207b74c146105a0578063b7654362146105c9578063c0789dcb14610606576101ee565b806398f1bc12146104cb578063a6a9ef02146104f6578063a6afed9514610533578063aa5af0fd1461054a576101ee565b80636a146024116101855780637bf7f7a2116101545780637bf7f7a2146104115780638d6cc56d1461044e5780638da5cb5b146104775780639504ad6d146104a2576101ee565b80636a14602414610355578063715018a61461038057806373b4086b146103975780637924d93f146103d4576101ee565b8063371fd8e6116101c1578063371fd8e6146102995780635cf9fb9f146102c25780635f4a8553146102ff5780636854786a1461032a576101ee565b80632b452427146101f35780632e1a7d4d1461021e5780632f865568146102475780633540302314610270575b600080fd5b3480156101ff57600080fd5b506102086107c3565b6040516102159190612fa9565b60405180910390f35b34801561022a57600080fd5b5061024560048036038101906102409190612ff5565b6107c9565b005b34801561025357600080fd5b5061026e60048036038101906102699190613080565b610b16565b005b34801561027c57600080fd5b5061029760048036038101906102929190612ff5565b61102d565b005b3480156102a557600080fd5b506102c060048036038101906102bb9190612ff5565b6112a7565b005b3480156102ce57600080fd5b506102e960048036038101906102e49190613080565b611545565b6040516102f69190612fa9565b60405180910390f35b34801561030b57600080fd5b506103146117cb565b6040516103219190612fa9565b60405180910390f35b34801561033657600080fd5b5061033f6117d1565b60405161034c919061316b565b60405180910390f35b34801561036157600080fd5b5061036a61185f565b6040516103779190612fa9565b60405180910390f35b34801561038c57600080fd5b5061039561186b565b005b3480156103a357600080fd5b506103be60048036038101906103b99190613080565b61187f565b6040516103cb9190612fa9565b60405180910390f35b3480156103e057600080fd5b506103fb60048036038101906103f69190612ff5565b611897565b604051610408919061319c565b60405180910390f35b34801561041d57600080fd5b5061043860048036038101906104339190613080565b6118d6565b6040516104459190612fa9565b60405180910390f35b34801561045a57600080fd5b5061047560048036038101906104709190612ff5565b6118ee565b005b34801561048357600080fd5b5061048c61197a565b604051610499919061319c565b60405180910390f35b3480156104ae57600080fd5b506104c960048036038101906104c49190612ff5565b6119a4565b005b3480156104d757600080fd5b506104e0611cee565b6040516104ed9190612fa9565b60405180910390f35b34801561050257600080fd5b5061051d60048036038101906105189190613080565b611cf4565b60405161052a91906131d2565b60405180910390f35b34801561053f57600080fd5b50610548611d14565b005b34801561055657600080fd5b5061055f611f92565b60405161056c9190612fa9565b60405180910390f35b34801561058157600080fd5b5061058a611f98565b604051610597919061324c565b60405180910390f35b3480156105ac57600080fd5b506105c760048036038101906105c29190613267565b611fbe565b005b3480156105d557600080fd5b506105f060048036038101906105eb9190613080565b612019565b6040516105fd9190612fa9565b60405180910390f35b34801561061257600080fd5b5061061b61227a565b6040516106289190612fa9565b60405180910390f35b34801561063d57600080fd5b5061065860048036038101906106539190612ff5565b612280565b005b6106626127ff565b005b34801561067057600080fd5b5061068b60048036038101906106869190612ff5565b612900565b005b34801561069957600080fd5b506106b460048036038101906106af9190613080565b6129ec565b6040516106c19190612fa9565b60405180910390f35b3480156106d657600080fd5b506106f160048036038101906106ec9190613080565b612a04565b005b3480156106ff57600080fd5b5061071a60048036038101906107159190613080565b612a87565b6040516107279190612fa9565b60405180910390f35b34801561073c57600080fd5b50610745612a9f565b6040516107529190612fa9565b60405180910390f35b34801561076757600080fd5b50610782600480360381019061077d9190613080565b612aa5565b60405161078f9190612fa9565b60405180910390f35b3480156107a457600080fd5b506107ad612abd565b6040516107ba9190612fa9565b60405180910390f35b600b5481565b6107d1612ac3565b60008111610814576040517f08c379a000000000000000000000000000000000000000000000000000000000815260040161080b90613304565b60405180910390fd5b80600260003373ffffffffffffffffffffffffffffffffffffffff1673ffffffffffffffffffffffffffffffffffffffff168152602001908152602001600020541015610896576040517f08c379a000000000000000000000000000000000000000000000000000000000815260040161088d90613370565b60405180910390fd5b61089e611d14565b6108a733612b12565b6000600360003373ffffffffffffffffffffffffffffffffffffffff1673ffffffffffffffffffffffffffffffffffffffff16815260200190815260200160002054905060008111156109b957600082600260003373ffffffffffffffffffffffffffffffffffffffff1673ffffffffffffffffffffffffffffffffffffffff1681526020019081526020016000205461094191906133bf565b90506000600d548261095391906133f3565b90506000606460508361096691906133f3565b6109709190613464565b9050808411156109b5576040517f08c379a00000000000000000000000000000000000000000000000000000000081526004016109ac90613507565b60405180910390fd5b5050505b81600260003373ffffffffffffffffffffffffffffffffffffffff1673ffffffffffffffffffffffffffffffffffffffff1681526020019081526020016000206000828254610a0891906133bf565b925050819055503373ffffffffffffffffffffffffffffffffffffffff167f884edad9ce6fa2440d8a54cc123490eb96d2768479d49ff9c7366125a942436483604051610a559190612fa9565b60405180910390a260003373ffffffffffffffffffffffffffffffffffffffff1683604051610a8390613558565b60006040518083038185875af1925050503d8060008114610ac0576040519150601f19603f3d011682016040523d82523d6000602084013e610ac5565b606091505b5050905080610b09576040517f08c379a0000000000000000000000000000000000000000000000000000000008152600401610b00906135b9565b60405180910390fd5b5050610b13612ca6565b50565b610b1e612ac3565b610b26611d14565b610b2f81612b12565b6000600360008373ffffffffffffffffffffffffffffffffffffffff1673ffffffffffffffffffffffffffffffffffffffff16815260200190815260200160002054905060008111610bb6576040517f08c379a0000000000000000000000000000000000000000000000000000000008152600401610bad90613625565b60405180910390fd5b6000600260008473ffffffffffffffffffffffffffffffffffffffff1673ffffffffffffffffffffffffffffffffffffffff1681526020019081526020016000205490506000600d5482610c0a91906133f3565b905060006064605083610c1d91906133f3565b610c279190613464565b9050808411610c6b576040517f08c379a0000000000000000000000000000000000000000000000000000000008152600401610c6290613691565b60405180910390fd5b6000600d5485610c7b9190613464565b905060006064600a83610c8e91906133f3565b610c989190613464565b905060008183610ca891906136b1565b90506000879050600082905082600260008c73ffffffffffffffffffffffffffffffffffffffff1673ffffffffffffffffffffffffffffffffffffffff168152602001908152602001600020541015610d6c57600260008b73ffffffffffffffffffffffffffffffffffffffff1673ffffffffffffffffffffffffffffffffffffffff1681526020019081526020016000205490506000606e606483610d4e91906133f3565b610d589190613464565b9050600d5481610d6891906133f3565b9250505b60008211610daf576040517f08c379a0000000000000000000000000000000000000000000000000000000008152600401610da690613757565b60405180910390fd5b600c60009054906101000a900473ffffffffffffffffffffffffffffffffffffffff1673ffffffffffffffffffffffffffffffffffffffff166323b872dd3330856040518463ffffffff1660e01b8152600401610e0e93929190613777565b6020604051808303816000875af1158015610e2d573d6000803e3d6000fd5b505050506040513d601f19601f82011682018060405250810190610e5191906137da565b610e90576040517f08c379a0000000000000000000000000000000000000000000000000000000008152600401610e8790613853565b60405180910390fd5b81600360008c73ffffffffffffffffffffffffffffffffffffffff1673ffffffffffffffffffffffffffffffffffffffff1681526020019081526020016000206000828254610edf91906133bf565b925050819055508160075410610f0d578160076000828254610f0191906133bf565b92505081905550610f16565b60006007819055505b80600260008c73ffffffffffffffffffffffffffffffffffffffff1673ffffffffffffffffffffffffffffffffffffffff1681526020019081526020016000206000828254610f6591906133bf565b9250508190555060003373ffffffffffffffffffffffffffffffffffffffff1682604051610f9290613558565b60006040518083038185875af1925050503d8060008114610fcf576040519150601f19603f3d011682016040523d82523d6000602084013e610fd4565b606091505b5050905080611018576040517f08c379a000000000000000000000000000000000000000000000000000000000815260040161100f906135b9565b60405180910390fd5b5050505050505050505061102a612ca6565b50565b611035612ac3565b60008111611078576040517f08c379a000000000000000000000000000000000000000000000000000000000815260040161106f90613304565b60405180910390fd5b611080611d14565b61108933612cb0565b600c60009054906101000a900473ffffffffffffffffffffffffffffffffffffffff1673ffffffffffffffffffffffffffffffffffffffff166323b872dd3330846040518463ffffffff1660e01b81526004016110e893929190613777565b6020604051808303816000875af1158015611107573d6000803e3d6000fd5b505050506040513d601f19601f8201168201806040525081019061112b91906137da565b61116a576040517f08c379a0000000000000000000000000000000000000000000000000000000008152600401611161906138bf565b60405180910390fd5b80601060003373ffffffffffffffffffffffffffffffffffffffff1673ffffffffffffffffffffffffffffffffffffffff16815260200190815260200160002060008282546111b991906136b1565b925050819055506000600960003373ffffffffffffffffffffffffffffffffffffffff1673ffffffffffffffffffffffffffffffffffffffff168152602001908152602001600020540361124e57600554600960003373ffffffffffffffffffffffffffffffffffffffff1673ffffffffffffffffffffffffffffffffffffffff168152602001908152602001600020819055505b3373ffffffffffffffffffffffffffffffffffffffff167fadacf827efe383160192c092d8658471945c074229a9746679b5e2b74adff191826040516112949190612fa9565b60405180910390a26112a4612ca6565b50565b6112af612ac3565b600081116112f2576040517f08c379a00000000000000000000000000000000000000000000000000000000081526004016112e990613304565b60405180910390fd5b6112fa611d14565b61130333612b12565b80600360003373ffffffffffffffffffffffffffffffffffffffff1673ffffffffffffffffffffffffffffffffffffffff168152602001908152602001600020541015611385576040517f08c379a000000000000000000000000000000000000000000000000000000000815260040161137c9061392b565b60405180910390fd5b80600360003373ffffffffffffffffffffffffffffffffffffffff1673ffffffffffffffffffffffffffffffffffffffff16815260200190815260200160002060008282546113d491906133bf565b9250508190555080600754106114025780600760008282546113f691906133bf565b9250508190555061140b565b60006007819055505b600c60009054906101000a900473ffffffffffffffffffffffffffffffffffffffff1673ffffffffffffffffffffffffffffffffffffffff166323b872dd3330846040518463ffffffff1660e01b815260040161146a93929190613777565b6020604051808303816000875af1158015611489573d6000803e3d6000fd5b505050506040513d601f19601f820116820180604052508101906114ad91906137da565b6114ec576040517f08c379a00000000000000000000000000000000000000000000000000000000081526004016114e3906138bf565b60405180910390fd5b3373ffffffffffffffffffffffffffffffffffffffff167f5c16de4f8b59bd9caf0f49a545f25819a895ed223294290b408242e72a594231826040516115329190612fa9565b60405180910390a2611542612ca6565b50565b600080601060008473ffffffffffffffffffffffffffffffffffffffff1673ffffffffffffffffffffffffffffffffffffffff1681526020019081526020016000205490506000810361159c5760009150506117c6565b600042905060065481036115b45781925050506117c6565b6000600654826115c491906133bf565b90506000600c60009054906101000a900473ffffffffffffffffffffffffffffffffffffffff1673ffffffffffffffffffffffffffffffffffffffff166370a08231306040518263ffffffff1660e01b8152600401611623919061319c565b602060405180830381865afa158015611640573d6000803e3d6000fd5b505050506040513d601f19601f820116820180604052508101906116649190613960565b9050600060075490506000818361167b91906136b1565b90506000808211156116a95781670de0b6b3a76400008461169c91906133f3565b6116a69190613464565b90505b6000670de0b6b3a764000082600b546116c291906133f3565b6116cc9190613464565b600a546116d991906136b1565b90506000670de0b6b3a764000083836116f291906133f3565b6116fc9190613464565b90506000878261170c91906133f3565b90506000670de0b6b3a76400008260055461172791906133f3565b6117319190613464565b60055461173e91906136b1565b90506000600960008f73ffffffffffffffffffffffffffffffffffffffff1673ffffffffffffffffffffffffffffffffffffffff168152602001908152602001600020549050600081036117a0578b9c505050505050505050505050506117c6565b80828d6117ad91906133f3565b6117b79190613464565b9c505050505050505050505050505b919050565b60075481565b6060600e80548060200260200160405190810160405280929190818152602001828054801561185557602002820191906000526020600020905b8160009054906101000a900473ffffffffffffffffffffffffffffffffffffffff1673ffffffffffffffffffffffffffffffffffffffff168152602001906001019080831161180b575b5050505050905090565b670de0b6b3a764000081565b611873612e44565b61187d6000612ec2565b565b60036020528060005260406000206000915090505481565b600e81815481106118a757600080fd5b906000526020600020016000915054906101000a900473ffffffffffffffffffffffffffffffffffffffff1681565b60086020528060005260406000206000915090505481565b6118f6612e44565b60008111611939576040517f08c379a0000000000000000000000000000000000000000000000000000000008152600401611930906139d9565b60405180910390fd5b80600d819055507f66cbca4f3c64fecf1dcb9ce094abcf7f68c3450a1d4e3a8e917dd621edb4ebe08160405161196f9190612fa9565b60405180910390a150565b6000600160009054906101000a900473ffffffffffffffffffffffffffffffffffffffff16905090565b6119ac612ac3565b600081116119ef576040517f08c379a00000000000000000000000000000000000000000000000000000000081526004016119e690613304565b60405180910390fd5b6119f7611d14565b611a0033612cb0565b80601060003373ffffffffffffffffffffffffffffffffffffffff1673ffffffffffffffffffffffffffffffffffffffff168152602001908152602001600020541015611a82576040517f08c379a0000000000000000000000000000000000000000000000000000000008152600401611a7990613a45565b60405180910390fd5b80600c60009054906101000a900473ffffffffffffffffffffffffffffffffffffffff1673ffffffffffffffffffffffffffffffffffffffff166370a08231306040518263ffffffff1660e01b8152600401611ade919061319c565b602060405180830381865afa158015611afb573d6000803e3d6000fd5b505050506040513d601f19601f82011682018060405250810190611b1f9190613960565b1015611b60576040517f08c379a0000000000000000000000000000000000000000000000000000000008152600401611b5790613ad7565b60405180910390fd5b80601060003373ffffffffffffffffffffffffffffffffffffffff1673ffffffffffffffffffffffffffffffffffffffff1681526020019081526020016000206000828254611baf91906133bf565b92505081905550600c60009054906101000a900473ffffffffffffffffffffffffffffffffffffffff1673ffffffffffffffffffffffffffffffffffffffff1663a9059cbb33836040518363ffffffff1660e01b8152600401611c13929190613af7565b6020604051808303816000875af1158015611c32573d6000803e3d6000fd5b505050506040513d601f19601f82011682018060405250810190611c5691906137da565b611c95576040517f08c379a0000000000000000000000000000000000000000000000000000000008152600401611c8c906138bf565b60405180910390fd5b3373ffffffffffffffffffffffffffffffffffffffff167f31cfa520872a5c23d284f296f8defa2f0a4500c021a83b87c00c02fd5bb8d26282604051611cdb9190612fa9565b60405180910390a2611ceb612ca6565b50565b60055481565b600f6020528060005260406000206000915054906101000a900460ff1681565b60004290506006548103611d285750611f90565b600060065482611d3891906133bf565b905060008103611d49575050611f90565b6000600c60009054906101000a900473ffffffffffffffffffffffffffffffffffffffff1673ffffffffffffffffffffffffffffffffffffffff166370a08231306040518263ffffffff1660e01b8152600401611da6919061319c565b602060405180830381865afa158015611dc3573d6000803e3d6000fd5b505050506040513d601f19601f82011682018060405250810190611de79190613960565b90506000600754905060008183611dfe91906136b1565b9050600080821115611e2c5781670de0b6b3a764000084611e1f91906133f3565b611e299190613464565b90505b6000670de0b6b3a764000082600b54611e4591906133f3565b611e4f9190613464565b600a54611e5c91906136b1565b90506000670de0b6b3a76400008383611e7591906133f3565b611e7f9190613464565b905060008783611e8f91906133f3565b905060008883611e9f91906133f3565b9050670de0b6b3a764000082600454611eb891906133f3565b611ec29190613464565b600454611ecf91906136b1565b600481905550670de0b6b3a764000081600554611eec91906133f3565b611ef69190613464565b600554611f0391906136b1565b600581905550670de0b6b3a764000082600754611f2091906133f3565b611f2a9190613464565b600754611f3791906136b1565b600781905550896006819055507fe9d95e658b0c714da9de2e12fbed253a24a632058a074dc7c90b8b6618675c7c600454600554600754604051611f7d93929190613b20565b60405180910390a1505050505050505050505b565b60045481565b600c60009054906101000a900473ffffffffffffffffffffffffffffffffffffffff1681565b611fc6612e44565b611fce611d14565b81600a8190555080600b819055507feccc72fcea0aa94a6e9e74352354db1591793248ffd0a0f5a170cbc49856fe6e828260405161200d929190613b57565b60405180910390a15050565b600080600360008473ffffffffffffffffffffffffffffffffffffffff1673ffffffffffffffffffffffffffffffffffffffff16815260200190815260200160002054905060008103612070576000915050612275565b60004290506006548103612088578192505050612275565b60006006548261209891906133bf565b90506000600c60009054906101000a900473ffffffffffffffffffffffffffffffffffffffff1673ffffffffffffffffffffffffffffffffffffffff166370a08231306040518263ffffffff1660e01b81526004016120f7919061319c565b602060405180830381865afa158015612114573d6000803e3d6000fd5b505050506040513d601f19601f820116820180604052508101906121389190613960565b9050600060075490506000818361214f91906136b1565b905060008082111561217d5781670de0b6b3a76400008461217091906133f3565b61217a9190613464565b90505b6000670de0b6b3a764000082600b5461219691906133f3565b6121a09190613464565b600a546121ad91906136b1565b9050600086826121bd91906133f3565b90506000670de0b6b3a7640000826004546121d891906133f3565b6121e29190613464565b6004546121ef91906136b1565b90506000600860008e73ffffffffffffffffffffffffffffffffffffffff1673ffffffffffffffffffffffffffffffffffffffff16815260200190815260200160002054905060008103612250578a9b505050505050505050505050612275565b80828c61225d91906133f3565b6122679190613464565b9b5050505050505050505050505b919050565b60065481565b612288612ac3565b600081116122cb576040517f08c379a00000000000000000000000000000000000000000000000000000000081526004016122c290613304565b60405180910390fd5b6122d3611d14565b6122dc33612b12565b6000600260003373ffffffffffffffffffffffffffffffffffffffff1673ffffffffffffffffffffffffffffffffffffffff1681526020019081526020016000205490506000600d548261233091906133f3565b90506000606460508361234391906133f3565b61234d9190613464565b90508084600360003373ffffffffffffffffffffffffffffffffffffffff1673ffffffffffffffffffffffffffffffffffffffff1681526020019081526020016000205461239b91906136b1565b11156123dc576040517f08c379a00000000000000000000000000000000000000000000000000000000081526004016123d390613bcc565b60405180910390fd5b83600c60009054906101000a900473ffffffffffffffffffffffffffffffffffffffff1673ffffffffffffffffffffffffffffffffffffffff166370a08231306040518263ffffffff1660e01b8152600401612438919061319c565b602060405180830381865afa158015612455573d6000803e3d6000fd5b505050506040513d601f19601f820116820180604052508101906124799190613960565b10156124ba576040517f08c379a00000000000000000000000000000000000000000000000000000000081526004016124b190613c38565b60405180910390fd5b83600360003373ffffffffffffffffffffffffffffffffffffffff1673ffffffffffffffffffffffffffffffffffffffff168152602001908152602001600020600082825461250991906136b1565b92505081905550836007600082825461252291906136b1565b92505081905550600f60003373ffffffffffffffffffffffffffffffffffffffff1673ffffffffffffffffffffffffffffffffffffffff16815260200190815260200160002060009054906101000a900460ff1661263657600e339080600181540180825580915050600190039060005260206000200160009091909190916101000a81548173ffffffffffffffffffffffffffffffffffffffff021916908373ffffffffffffffffffffffffffffffffffffffff1602179055506001600f60003373ffffffffffffffffffffffffffffffffffffffff1673ffffffffffffffffffffffffffffffffffffffff16815260200190815260200160002060006101000a81548160ff0219169083151502179055505b6000600860003373ffffffffffffffffffffffffffffffffffffffff1673ffffffffffffffffffffffffffffffffffffffff16815260200190815260200160002054036126c457600454600860003373ffffffffffffffffffffffffffffffffffffffff1673ffffffffffffffffffffffffffffffffffffffff168152602001908152602001600020819055505b600c60009054906101000a900473ffffffffffffffffffffffffffffffffffffffff1673ffffffffffffffffffffffffffffffffffffffff1663a9059cbb33866040518363ffffffff1660e01b8152600401612721929190613af7565b6020604051808303816000875af1158015612740573d6000803e3d6000fd5b505050506040513d601f19601f8201168201806040525081019061276491906137da565b6127a3576040517f08c379a000000000000000000000000000000000000000000000000000000000815260040161279a906138bf565b60405180910390fd5b3373ffffffffffffffffffffffffffffffffffffffff167fcbc04eca7e9da35cb1393a6135a199ca52e450d5e9251cbd99f7847d33a36750856040516127e99190612fa9565b60405180910390a25050506127fc612ca6565b50565b612807612ac3565b6000341161284a576040517f08c379a000000000000000000000000000000000000000000000000000000000815260040161284190613304565b60405180910390fd5b612852611d14565b34600260003373ffffffffffffffffffffffffffffffffffffffff1673ffffffffffffffffffffffffffffffffffffffff16815260200190815260200160002060008282546128a191906136b1565b925050819055503373ffffffffffffffffffffffffffffffffffffffff167fe1fffcc4923d04b559f4d29a8bfc6cda04eb5b0d3c460751c2402c5c5cc9109c346040516128ee9190612fa9565b60405180910390a26128fe612ca6565b565b612908612e44565b600c60009054906101000a900473ffffffffffffffffffffffffffffffffffffffff1673ffffffffffffffffffffffffffffffffffffffff166323b872dd3330846040518463ffffffff1660e01b815260040161296793929190613777565b6020604051808303816000875af1158015612986573d6000803e3d6000fd5b505050506040513d601f19601f820116820180604052508101906129aa91906137da565b6129e9576040517f08c379a00000000000000000000000000000000000000000000000000000000081526004016129e0906138bf565b60405180910390fd5b50565b60106020528060005260406000206000915090505481565b612a0c612e44565b600073ffffffffffffffffffffffffffffffffffffffff168173ffffffffffffffffffffffffffffffffffffffff1603612a7b576040517f08c379a0000000000000000000000000000000000000000000000000000000008152600401612a7290613cca565b60405180910390fd5b612a8481612ec2565b50565b60096020528060005260406000206000915090505481565b600a5481565b60026020528060005260406000206000915090505481565b600d5481565b600260005403612b08576040517f08c379a0000000000000000000000000000000000000000000000000000000008152600401612aff90613d36565b60405180910390fd5b6002600081905550565b6000600860008373ffffffffffffffffffffffffffffffffffffffff1673ffffffffffffffffffffffffffffffffffffffff16815260200190815260200160002054905060008103612baa57600454600860008473ffffffffffffffffffffffffffffffffffffffff1673ffffffffffffffffffffffffffffffffffffffff1681526020019081526020016000208190555050612ca3565b6000600360008473ffffffffffffffffffffffffffffffffffffffff1673ffffffffffffffffffffffffffffffffffffffff1681526020019081526020016000205490506000811115612c5a5760008260045483612c0891906133f3565b612c129190613464565b905080600360008673ffffffffffffffffffffffffffffffffffffffff1673ffffffffffffffffffffffffffffffffffffffff16815260200190815260200160002081905550505b600454600860008573ffffffffffffffffffffffffffffffffffffffff1673ffffffffffffffffffffffffffffffffffffffff1681526020019081526020016000208190555050505b50565b6001600081905550565b6000600960008373ffffffffffffffffffffffffffffffffffffffff1673ffffffffffffffffffffffffffffffffffffffff16815260200190815260200160002054905060008103612d4857600554600960008473ffffffffffffffffffffffffffffffffffffffff1673ffffffffffffffffffffffffffffffffffffffff1681526020019081526020016000208190555050612e41565b6000601060008473ffffffffffffffffffffffffffffffffffffffff1673ffffffffffffffffffffffffffffffffffffffff1681526020019081526020016000205490506000811115612df85760008260055483612da691906133f3565b612db09190613464565b905080601060008673ffffffffffffffffffffffffffffffffffffffff1673ffffffffffffffffffffffffffffffffffffffff16815260200190815260200160002081905550505b600554600960008573ffffffffffffffffffffffffffffffffffffffff1673ffffffffffffffffffffffffffffffffffffffff1681526020019081526020016000208190555050505b50565b612e4c612f88565b73ffffffffffffffffffffffffffffffffffffffff16612e6a61197a565b73ffffffffffffffffffffffffffffffffffffffff1614612ec0576040517f08c379a0000000000000000000000000000000000000000000000000000000008152600401612eb790613da2565b60405180910390fd5b565b6000600160009054906101000a900473ffffffffffffffffffffffffffffffffffffffff16905081600160006101000a81548173ffffffffffffffffffffffffffffffffffffffff021916908373ffffffffffffffffffffffffffffffffffffffff1602179055508173ffffffffffffffffffffffffffffffffffffffff168173ffffffffffffffffffffffffffffffffffffffff167f8be0079c531659141344cd1fd0a4f28419497f9722a3daafe3b4186f6b6457e060405160405180910390a35050565b600033905090565b6000819050919050565b612fa381612f90565b82525050565b6000602082019050612fbe6000830184612f9a565b92915050565b600080fd5b612fd281612f90565b8114612fdd57600080fd5b50565b600081359050612fef81612fc9565b92915050565b60006020828403121561300b5761300a612fc4565b5b600061301984828501612fe0565b91505092915050565b600073ffffffffffffffffffffffffffffffffffffffff82169050919050565b600061304d82613022565b9050919050565b61305d81613042565b811461306857600080fd5b50565b60008135905061307a81613054565b92915050565b60006020828403121561309657613095612fc4565b5b60006130a48482850161306b565b91505092915050565b600081519050919050565b600082825260208201905092915050565b6000819050602082019050919050565b6130e281613042565b82525050565b60006130f483836130d9565b60208301905092915050565b6000602082019050919050565b6000613118826130ad565b61312281856130b8565b935061312d836130c9565b8060005b8381101561315e57815161314588826130e8565b975061315083613100565b925050600181019050613131565b5085935050505092915050565b60006020820190508181036000830152613185818461310d565b905092915050565b61319681613042565b82525050565b60006020820190506131b1600083018461318d565b92915050565b60008115159050919050565b6131cc816131b7565b82525050565b60006020820190506131e760008301846131c3565b92915050565b6000819050919050565b600061321261320d61320884613022565b6131ed565b613022565b9050919050565b6000613224826131f7565b9050919050565b600061323682613219565b9050919050565b6132468161322b565b82525050565b6000602082019050613261600083018461323d565b92915050565b6000806040838503121561327e5761327d612fc4565b5b600061328c85828601612fe0565b925050602061329d85828601612fe0565b9150509250929050565b600082825260208201905092915050565b7f416d6f756e74206d7573742062652067726561746572207468616e2030000000600082015250565b60006132ee601d836132a7565b91506132f9826132b8565b602082019050919050565b6000602082019050818103600083015261331d816132e1565b9050919050565b7f496e73756666696369656e742062616c616e6365000000000000000000000000600082015250565b600061335a6014836132a7565b915061336582613324565b602082019050919050565b600060208201905081810360008301526133898161334d565b9050919050565b7f4e487b7100000000000000000000000000000000000000000000000000000000600052601160045260246000fd5b60006133ca82612f90565b91506133d583612f90565b92508282039050818111156133ed576133ec613390565b5b92915050565b60006133fe82612f90565b915061340983612f90565b925082820261341781612f90565b9150828204841483151761342e5761342d613390565b5b5092915050565b7f4e487b7100000000000000000000000000000000000000000000000000000000600052601260045260246000fd5b600061346f82612f90565b915061347a83612f90565b92508261348a57613489613435565b5b828204905092915050565b7f43616e6e6f742077697468647261773a204865616c746820466163746f72207760008201527f6f756c642064726f702062656c6f772031000000000000000000000000000000602082015250565b60006134f16031836132a7565b91506134fc82613495565b604082019050919050565b60006020820190508181036000830152613520816134e4565b9050919050565b600081905092915050565b50565b6000613542600083613527565b915061354d82613532565b600082019050919050565b600061356382613535565b9150819050919050565b7f455448207472616e73666572206661696c656400000000000000000000000000600082015250565b60006135a36013836132a7565b91506135ae8261356d565b602082019050919050565b600060208201905081810360008301526135d281613596565b9050919050565b7f4e6f206465627420746f206c6971756964617465000000000000000000000000600082015250565b600061360f6014836132a7565b915061361a826135d9565b602082019050919050565b6000602082019050818103600083015261363e81613602565b9050919050565b7f4865616c746820466163746f72206973203e3d20310000000000000000000000600082015250565b600061367b6015836132a7565b915061368682613645565b602082019050919050565b600060208201905081810360008301526136aa8161366e565b9050919050565b60006136bc82612f90565b91506136c783612f90565b92508282019050808211156136df576136de613390565b5b92915050565b7f436f6c6c61746572616c20746f6f20736d616c6c20746f206c6971756964617460008201527f6500000000000000000000000000000000000000000000000000000000000000602082015250565b60006137416021836132a7565b915061374c826136e5565b604082019050919050565b6000602082019050818103600083015261377081613734565b9050919050565b600060608201905061378c600083018661318d565b613799602083018561318d565b6137a66040830184612f9a565b949350505050565b6137b7816131b7565b81146137c257600080fd5b50565b6000815190506137d4816137ae565b92915050565b6000602082840312156137f0576137ef612fc4565b5b60006137fe848285016137c5565b91505092915050565b7f546f6b656e207472616e73666572206661696c65640000000000000000000000600082015250565b600061383d6015836132a7565b915061384882613807565b602082019050919050565b6000602082019050818103600083015261386c81613830565b9050919050565b7f5472616e73666572206661696c65640000000000000000000000000000000000600082015250565b60006138a9600f836132a7565b91506138b482613873565b602082019050919050565b600060208201905081810360008301526138d88161389c565b9050919050565b7f416d6f756e742065786365656473206465627400000000000000000000000000600082015250565b60006139156013836132a7565b9150613920826138df565b602082019050919050565b6000602082019050818103600083015261394481613908565b9050919050565b60008151905061395a81612fc9565b92915050565b60006020828403121561397657613975612fc4565b5b60006139848482850161394b565b91505092915050565b7f5072696365206d757374206265203e2030000000000000000000000000000000600082015250565b60006139c36011836132a7565b91506139ce8261398d565b602082019050919050565b600060208201905081810360008301526139f2816139b6565b9050919050565b7f496e73756666696369656e7420737570706c792062616c616e63650000000000600082015250565b6000613a2f601b836132a7565b9150613a3a826139f9565b602082019050919050565b60006020820190508181036000830152613a5e81613a22565b9050919050565b7f496e73756666696369656e7420706f6f6c206c697175696469747920746f207760008201527f6974686472617700000000000000000000000000000000000000000000000000602082015250565b6000613ac16027836132a7565b9150613acc82613a65565b604082019050919050565b60006020820190508181036000830152613af081613ab4565b9050919050565b6000604082019050613b0c600083018561318d565b613b196020830184612f9a565b9392505050565b6000606082019050613b356000830186612f9a565b613b426020830185612f9a565b613b4f6040830184612f9a565b949350505050565b6000604082019050613b6c6000830185612f9a565b613b796020830184612f9a565b9392505050565b7f496e73756666696369656e7420636f6c6c61746572616c000000000000000000600082015250565b6000613bb66017836132a7565b9150613bc182613b80565b602082019050919050565b60006020820190508181036000830152613be581613ba9565b9050919050565b7f496e73756666696369656e7420706f6f6c206c69717569646974790000000000600082015250565b6000613c22601b836132a7565b9150613c2d82613bec565b602082019050919050565b60006020820190508181036000830152613c5181613c15565b9050919050565b7f4f776e61626c653a206e6577206f776e657220697320746865207a65726f206160008201527f6464726573730000000000000000000000000000000000000000000000000000602082015250565b6000613cb46026836132a7565b9150613cbf82613c58565b604082019050919050565b60006020820190508181036000830152613ce381613ca7565b9050919050565b7f5265656e7472616e637947756172643a207265656e7472616e742063616c6c00600082015250565b6000613d20601f836132a7565b9150613d2b82613cea565b602082019050919050565b60006020820190508181036000830152613d4f81613d13565b9050919050565b7f4f776e61626c653a2063616c6c6572206973206e6f7420746865206f776e6572600082015250565b6000613d8c6020836132a7565b9150613d9782613d56565b602082019050919050565b60006020820190508181036000830152613dbb81613d7f565b905091905056fea26469706673582212209cf292094704193ffca806432d86ceb6f83251b667f766c43421d9bf704e818064736f6c63430008140033",
  "linkReferences": {},
  "deployedLinkReferences": {}
}