{
  "_format": "hh-sol-artifact-1",
  "contractName": "LendingPool",
  "sourceName": "contracts/LendingPool.sol",
  "abi": [
    {
      "inputs": [
        {
          "internalType": "address",
          "name": "_lendingToken",
          "type": "address"
        },
        {
          "internalType": "uint256",
          "name": "_initialEthPrice",
          "type": "uint256"
        }
      ],
      "stateMutability": "nonpayable",
      "type": "constructor"
    },
    {
      "anonymous": false,
      "inputs": [
        {
          "indexed": true,
          "internalType": "address",
          "name": "user",
          "type": "address"
        },
        {
          "indexed": false,
          "internalType": "uint256",
          "name": "amount",
          "type": "uint256"
        }
      ],
      "name": "Borrow",
      "type": "event"
    },
    {
      "anonymous": false,
      "inputs": [
        {
          "indexed": true,
          "internalType": "address",
          "name": "user",
          "type": "address"
        },
        {
          "indexed": false,
          "internalType": "uint256",
          "name": "amount",
          "type": "uint256"
        }
      ],
      "name": "Deposit",
      "type": "event"
    },
    {
      "anonymous": false,
      "inputs": [
        {
          "indexed": true,
          "internalType": "address",
          "name": "previousOwner",
          "type": "address"
        },
        {
          "indexed": true,
          "internalType": "address",
          "name": "newOwner",
          "type": "address"
        }
      ],
      "name": "OwnershipTransferred",
      "type": "event"
    },
    {
      "anonymous": false,
      "inputs": [
        {
          "indexed": false,
          "internalType": "uint256",
          "name": "newPrice",
          "type": "uint256"
        }
      ],
      "name": "PriceUpdated",
      "type": "event"
    },
    {
      "anonymous": false,
      "inputs": [
        {
          "indexed": true,
          "internalType": "address",
          "name": "user",
          "type": "address"
        },
        {
          "indexed": false,
          "internalType": "uint256",
          "name": "amount",
          "type": "uint256"
        }
      ],
      "name": "Repay",
      "type": "event"
    },
    {
      "anonymous": false,
      "inputs": [
        {
          "indexed": true,
          "internalType": "address",
          "name": "user",
          "type": "address"
        },
        {
          "indexed": false,
          "internalType": "uint256",
          "name": "amount",
          "type": "uint256"
        }
      ],
      "name": "Supply",
      "type": "event"
    },
    {
      "anonymous": false,
      "inputs": [
        {
          "indexed": true,
          "internalType": "address",
          "name": "user",
          "type": "address"
        },
        {
          "indexed": false,
          "internalType": "uint256",
          "name": "amount",
          "type": "uint256"
        }
      ],
      "name": "Withdraw",
      "type": "event"
    },
    {
      "anonymous": false,
      "inputs": [
        {
          "indexed": true,
          "internalType": "address",
          "name": "user",
          "type": "address"
        },
        {
          "indexed": false,
          "internalType": "uint256",
          "name": "amount",
          "type": "uint256"
        }
      ],
      "name": "WithdrawSupply",
      "type": "event"
    },
    {
      "inputs": [
        {
          "internalType": "uint256",
          "name": "amount",
          "type": "uint256"
        }
      ],
      "name": "borrow",
      "outputs": [],
      "stateMutability": "nonpayable",
      "type": "function"
    },
    {
      "inputs": [
        {
          "internalType": "uint256",
          "name": "",
          "type": "uint256"
        }
      ],
      "name": "borrowers",
      "outputs": [
        {
          "internalType": "address",
          "name": "",
          "type": "address"
        }
      ],
      "stateMutability": "view",
      "type": "function"
    },
    {
      "inputs": [],
      "name": "deposit",
      "outputs": [],
      "stateMutability": "payable",
      "type": "function"
    },
    {
      "inputs": [
        {
          "internalType": "address",
          "name": "",
          "type": "address"
        }
      ],
      "name": "deposits",
      "outputs": [
        {
          "internalType": "uint256",
          "name": "",
          "type": "uint256"
        }
      ],
      "stateMutability": "view",
      "type": "function"
    },
    {
      "inputs": [],
      "name": "ethPrice",
      "outputs": [
        {
          "internalType": "uint256",
          "name": "",
          "type": "uint256"
        }
      ],
      "stateMutability": "view",
      "type": "function"
    },
    {
      "inputs": [
        {
          "internalType": "uint256",
          "name": "amount",
          "type": "uint256"
        }
      ],
      "name": "fundPool",
      "outputs": [],
      "stateMutability": "nonpayable",
      "type": "function"
    },
    {
      "inputs": [],
      "name": "getBorrowers",
      "outputs": [
        {
          "internalType": "address[]",
          "name": "",
          "type": "address[]"
        }
      ],
      "stateMutability": "view",
      "type": "function"
    },
    {
      "inputs": [
        {
          "internalType": "address",
          "name": "",
          "type": "address"
        }
      ],
      "name": "hasBorrowed",
      "outputs": [
        {
          "internalType": "bool",
          "name": "",
          "type": "bool"
        }
      ],
      "stateMutability": "view",
      "type": "function"
    },
    {
      "inputs": [],
      "name": "lendingToken",
      "outputs": [
        {
          "internalType": "contract IERC20",
          "name": "",
          "type": "address"
        }
      ],
      "stateMutability": "view",
      "type": "function"
    },
    {
      "inputs": [
        {
          "internalType": "address",
          "name": "user",
          "type": "address"
        }
      ],
      "name": "liquidate",
      "outputs": [],
      "stateMutability": "nonpayable",
      "type": "function"
    },
    {
      "inputs": [
        {
          "internalType": "address",
          "name": "",
          "type": "address"
        }
      ],
      "name": "loans",
      "outputs": [
        {
          "internalType": "uint256",
          "name": "",
          "type": "uint256"
        }
      ],
      "stateMutability": "view",
      "type": "function"
    },
    {
      "inputs": [],
      "name": "owner",
      "outputs": [
        {
          "internalType": "address",
          "name": "",
          "type": "address"
        }
      ],
      "stateMutability": "view",
      "type": "function"
    },
    {
      "inputs": [],
      "name": "renounceOwnership",
      "outputs": [],
      "stateMutability": "nonpayable",
      "type": "function"
    },
    {
      "inputs": [
        {
          "internalType": "uint256",
          "name": "amount",
          "type": "uint256"
        }
      ],
      "name": "repay",
      "outputs": [],
      "stateMutability": "nonpayable",
      "type": "function"
    },
    {
      "inputs": [
        {
          "internalType": "address",
          "name": "",
          "type": "address"
        }
      ],
      "name": "suppliedTokens",
      "outputs": [
        {
          "internalType": "uint256",
          "name": "",
          "type": "uint256"
        }
      ],
      "stateMutability": "view",
      "type": "function"
    },
    {
      "inputs": [
        {
          "internalType": "uint256",
          "name": "amount",
          "type": "uint256"
        }
      ],
      "name": "supply",
      "outputs": [],
      "stateMutability": "nonpayable",
      "type": "function"
    },
    {
      "inputs": [
        {
          "internalType": "address",
          "name": "newOwner",
          "type": "address"
        }
      ],
      "name": "transferOwnership",
      "outputs": [],
      "stateMutability": "nonpayable",
      "type": "function"
    },
    {
      "inputs": [
        {
          "internalType": "uint256",
          "name": "_newPrice",
          "type": "uint256"
        }
      ],
      "name": "updatePrice",
      "outputs": [],
      "stateMutability": "nonpayable",
      "type": "function"
    },
    {
      "inputs": [
        {
          "internalType": "uint256",
          "name": "amount",
          "type": "uint256"
        }
      ],
      "name": "withdraw",
      "outputs": [],
      "stateMutability": "nonpayable",
      "type": "function"
    },
    {
      "inputs": [
        {
          "internalType": "uint256",
          "name": "amount",
          "type": "uint256"
        }
      ],
      "name": "withdrawSupply",
      "outputs": [],
      "stateMutability": "nonpayable",
      "type": "function"
    }
  ],
  "bytecode": "0x60806040523480156200001157600080fd5b5060405162002e9a38038062002e9a833981810160405281019062000037919062000222565b60016000819055506200005f62000053620000af60201b60201c565b620000b760201b60201c565b81600460006101000a81548173ffffffffffffffffffffffffffffffffffffffff021916908373ffffffffffffffffffffffffffffffffffffffff16021790555080600581905550505062000269565b600033905090565b6000600160009054906101000a900473ffffffffffffffffffffffffffffffffffffffff16905081600160006101000a81548173ffffffffffffffffffffffffffffffffffffffff021916908373ffffffffffffffffffffffffffffffffffffffff1602179055508173ffffffffffffffffffffffffffffffffffffffff168173ffffffffffffffffffffffffffffffffffffffff167f8be0079c531659141344cd1fd0a4f28419497f9722a3daafe3b4186f6b6457e060405160405180910390a35050565b600080fd5b600073ffffffffffffffffffffffffffffffffffffffff82169050919050565b6000620001af8262000182565b9050919050565b620001c181620001a2565b8114620001cd57600080fd5b50565b600081519050620001e181620001b6565b92915050565b6000819050919050565b620001fc81620001e7565b81146200020857600080fd5b50565b6000815190506200021c81620001f1565b92915050565b600080604083850312156200023c576200023b6200017d565b5b60006200024c85828601620001d0565b92505060206200025f858286016200020b565b9150509250929050565b612c2180620002796000396000f3fe60806040526004361061011f5760003560e01c80639504ad6d116100a0578063da3a5f7211610064578063da3a5f721461039c578063e9bd7eef146103c5578063f2fde38b14610402578063fc7e286d1461042b578063ff186b2e146104685761011f565b80639504ad6d146102d8578063a6a9ef0214610301578063aaaca5581461033e578063c5ebeaec14610369578063d0e30db0146103925761011f565b8063715018a6116100e7578063715018a6146101f357806373b4086b1461020a5780637924d93f146102475780638d6cc56d146102845780638da5cb5b146102ad5761011f565b80632e1a7d4d146101245780632f8655681461014d5780633540302314610176578063371fd8e61461019f5780636854786a146101c8575b600080fd5b34801561013057600080fd5b5061014b60048036038101906101469190611eba565b610493565b005b34801561015957600080fd5b50610174600480360381019061016f9190611f45565b6107cf565b005b34801561018257600080fd5b5061019d60048036038101906101989190611eba565b610c0f565b005b3480156101ab57600080fd5b506101c660048036038101906101c19190611eba565b610dea565b005b3480156101d457600080fd5b506101dd611047565b6040516101ea9190612030565b60405180910390f35b3480156101ff57600080fd5b506102086110d5565b005b34801561021657600080fd5b50610231600480360381019061022c9190611f45565b6110e9565b60405161023e9190612061565b60405180910390f35b34801561025357600080fd5b5061026e60048036038101906102699190611eba565b611101565b60405161027b919061208b565b60405180910390f35b34801561029057600080fd5b506102ab60048036038101906102a69190611eba565b611140565b005b3480156102b957600080fd5b506102c26111cc565b6040516102cf919061208b565b60405180910390f35b3480156102e457600080fd5b506102ff60048036038101906102fa9190611eba565b6111f6565b005b34801561030d57600080fd5b5061032860048036038101906103239190611f45565b61152f565b60405161033591906120c1565b60405180910390f35b34801561034a57600080fd5b5061035361154f565b604051610360919061213b565b60405180910390f35b34801561037557600080fd5b50610390600480360381019061038b9190611eba565b611575565b005b61039a611a3c565b005b3480156103a857600080fd5b506103c360048036038101906103be9190611eba565b611b35565b005b3480156103d157600080fd5b506103ec60048036038101906103e79190611f45565b611c21565b6040516103f99190612061565b60405180910390f35b34801561040e57600080fd5b5061042960048036038101906104249190611f45565b611c39565b005b34801561043757600080fd5b50610452600480360381019061044d9190611f45565b611cbc565b60405161045f9190612061565b60405180910390f35b34801561047457600080fd5b5061047d611cd4565b60405161048a9190612061565b60405180910390f35b61049b611cda565b600081116104de576040517f08c379a00000000000000000000000000000000000000000000000000000000081526004016104d5906121b3565b60405180910390fd5b80600260003373ffffffffffffffffffffffffffffffffffffffff1673ffffffffffffffffffffffffffffffffffffffff168152602001908152602001600020541015610560576040517f08c379a00000000000000000000000000000000000000000000000000000000081526004016105579061221f565b60405180910390fd5b6000600360003373ffffffffffffffffffffffffffffffffffffffff1673ffffffffffffffffffffffffffffffffffffffff168152602001908152602001600020549050600081111561067257600082600260003373ffffffffffffffffffffffffffffffffffffffff1673ffffffffffffffffffffffffffffffffffffffff168152602001908152602001600020546105fa919061226e565b905060006005548261060c91906122a2565b90506000606460508361061f91906122a2565b6106299190612313565b90508084111561066e576040517f08c379a0000000000000000000000000000000000000000000000000000000008152600401610665906123b6565b60405180910390fd5b5050505b81600260003373ffffffffffffffffffffffffffffffffffffffff1673ffffffffffffffffffffffffffffffffffffffff16815260200190815260200160002060008282546106c1919061226e565b925050819055503373ffffffffffffffffffffffffffffffffffffffff167f884edad9ce6fa2440d8a54cc123490eb96d2768479d49ff9c7366125a94243648360405161070e9190612061565b60405180910390a260003373ffffffffffffffffffffffffffffffffffffffff168360405161073c90612407565b60006040518083038185875af1925050503d8060008114610779576040519150601f19603f3d011682016040523d82523d6000602084013e61077e565b606091505b50509050806107c2576040517f08c379a00000000000000000000000000000000000000000000000000000000081526004016107b990612468565b60405180910390fd5b50506107cc611d29565b50565b6107d7611cda565b6000600360008373ffffffffffffffffffffffffffffffffffffffff1673ffffffffffffffffffffffffffffffffffffffff1681526020019081526020016000205490506000811161085e576040517f08c379a0000000000000000000000000000000000000000000000000000000008152600401610855906124d4565b60405180910390fd5b6000600260008473ffffffffffffffffffffffffffffffffffffffff1673ffffffffffffffffffffffffffffffffffffffff1681526020019081526020016000205490506000600554826108b291906122a2565b9050600060646050836108c591906122a2565b6108cf9190612313565b9050808411610913576040517f08c379a000000000000000000000000000000000000000000000000000000000815260040161090a90612540565b60405180910390fd5b6000600554856109239190612313565b905060006064600a8361093691906122a2565b6109409190612313565b9050600081836109509190612560565b905080600260008a73ffffffffffffffffffffffffffffffffffffffff1673ffffffffffffffffffffffffffffffffffffffff1681526020019081526020016000205410156109d4576040517f08c379a00000000000000000000000000000000000000000000000000000000081526004016109cb906125e0565b60405180910390fd5b600460009054906101000a900473ffffffffffffffffffffffffffffffffffffffff1673ffffffffffffffffffffffffffffffffffffffff166323b872dd33308a6040518463ffffffff1660e01b8152600401610a3393929190612600565b6020604051808303816000875af1158015610a52573d6000803e3d6000fd5b505050506040513d601f19601f82011682018060405250810190610a769190612663565b610ab5576040517f08c379a0000000000000000000000000000000000000000000000000000000008152600401610aac906126dc565b60405180910390fd5b6000600360008a73ffffffffffffffffffffffffffffffffffffffff1673ffffffffffffffffffffffffffffffffffffffff1681526020019081526020016000208190555080600260008a73ffffffffffffffffffffffffffffffffffffffff1673ffffffffffffffffffffffffffffffffffffffff1681526020019081526020016000206000828254610b49919061226e565b9250508190555060003373ffffffffffffffffffffffffffffffffffffffff1682604051610b7690612407565b60006040518083038185875af1925050503d8060008114610bb3576040519150601f19603f3d011682016040523d82523d6000602084013e610bb8565b606091505b5050905080610bfc576040517f08c379a0000000000000000000000000000000000000000000000000000000008152600401610bf390612468565b60405180910390fd5b5050505050505050610c0c611d29565b50565b610c17611cda565b60008111610c5a576040517f08c379a0000000000000000000000000000000000000000000000000000000008152600401610c51906121b3565b60405180910390fd5b600460009054906101000a900473ffffffffffffffffffffffffffffffffffffffff1673ffffffffffffffffffffffffffffffffffffffff166323b872dd3330846040518463ffffffff1660e01b8152600401610cb993929190612600565b6020604051808303816000875af1158015610cd8573d6000803e3d6000fd5b505050506040513d601f19601f82011682018060405250810190610cfc9190612663565b610d3b576040517f08c379a0000000000000000000000000000000000000000000000000000000008152600401610d3290612748565b60405180910390fd5b80600860003373ffffffffffffffffffffffffffffffffffffffff1673ffffffffffffffffffffffffffffffffffffffff1681526020019081526020016000206000828254610d8a9190612560565b925050819055503373ffffffffffffffffffffffffffffffffffffffff167fadacf827efe383160192c092d8658471945c074229a9746679b5e2b74adff19182604051610dd79190612061565b60405180910390a2610de7611d29565b50565b610df2611cda565b60008111610e35576040517f08c379a0000000000000000000000000000000000000000000000000000000008152600401610e2c906121b3565b60405180910390fd5b80600360003373ffffffffffffffffffffffffffffffffffffffff1673ffffffffffffffffffffffffffffffffffffffff168152602001908152602001600020541015610eb7576040517f08c379a0000000000000000000000000000000000000000000000000000000008152600401610eae906127b4565b60405180910390fd5b80600360003373ffffffffffffffffffffffffffffffffffffffff1673ffffffffffffffffffffffffffffffffffffffff1681526020019081526020016000206000828254610f06919061226e565b92505081905550600460009054906101000a900473ffffffffffffffffffffffffffffffffffffffff1673ffffffffffffffffffffffffffffffffffffffff166323b872dd3330846040518463ffffffff1660e01b8152600401610f6c93929190612600565b6020604051808303816000875af1158015610f8b573d6000803e3d6000fd5b505050506040513d601f19601f82011682018060405250810190610faf9190612663565b610fee576040517f08c379a0000000000000000000000000000000000000000000000000000000008152600401610fe590612748565b60405180910390fd5b3373ffffffffffffffffffffffffffffffffffffffff167f5c16de4f8b59bd9caf0f49a545f25819a895ed223294290b408242e72a594231826040516110349190612061565b60405180910390a2611044611d29565b50565b606060068054806020026020016040519081016040528092919081815260200182805480156110cb57602002820191906000526020600020905b8160009054906101000a900473ffffffffffffffffffffffffffffffffffffffff1673ffffffffffffffffffffffffffffffffffffffff1681526020019060010190808311611081575b5050505050905090565b6110dd611d33565b6110e76000611db1565b565b60036020528060005260406000206000915090505481565b6006818154811061111157600080fd5b906000526020600020016000915054906101000a900473ffffffffffffffffffffffffffffffffffffffff1681565b611148611d33565b6000811161118b576040517f08c379a000000000000000000000000000000000000000000000000000000000815260040161118290612820565b60405180910390fd5b806005819055507f66cbca4f3c64fecf1dcb9ce094abcf7f68c3450a1d4e3a8e917dd621edb4ebe0816040516111c19190612061565b60405180910390a150565b6000600160009054906101000a900473ffffffffffffffffffffffffffffffffffffffff16905090565b6111fe611cda565b60008111611241576040517f08c379a0000000000000000000000000000000000000000000000000000000008152600401611238906121b3565b60405180910390fd5b80600860003373ffffffffffffffffffffffffffffffffffffffff1673ffffffffffffffffffffffffffffffffffffffff1681526020019081526020016000205410156112c3576040517f08c379a00000000000000000000000000000000000000000000000000000000081526004016112ba9061288c565b60405180910390fd5b80600460009054906101000a900473ffffffffffffffffffffffffffffffffffffffff1673ffffffffffffffffffffffffffffffffffffffff166370a08231306040518263ffffffff1660e01b815260040161131f919061208b565b602060405180830381865afa15801561133c573d6000803e3d6000fd5b505050506040513d601f19601f8201168201806040525081019061136091906128c1565b10156113a1576040517f08c379a000000000000000000000000000000000000000000000000000000000815260040161139890612960565b60405180910390fd5b80600860003373ffffffffffffffffffffffffffffffffffffffff1673ffffffffffffffffffffffffffffffffffffffff16815260200190815260200160002060008282546113f0919061226e565b92505081905550600460009054906101000a900473ffffffffffffffffffffffffffffffffffffffff1673ffffffffffffffffffffffffffffffffffffffff1663a9059cbb33836040518363ffffffff1660e01b8152600401611454929190612980565b6020604051808303816000875af1158015611473573d6000803e3d6000fd5b505050506040513d601f19601f820116820180604052508101906114979190612663565b6114d6576040517f08c379a00000000000000000000000000000000000000000000000000000000081526004016114cd90612748565b60405180910390fd5b3373ffffffffffffffffffffffffffffffffffffffff167f31cfa520872a5c23d284f296f8defa2f0a4500c021a83b87c00c02fd5bb8d2628260405161151c9190612061565b60405180910390a261152c611d29565b50565b60076020528060005260406000206000915054906101000a900460ff1681565b600460009054906101000a900473ffffffffffffffffffffffffffffffffffffffff1681565b61157d611cda565b600081116115c0576040517f08c379a00000000000000000000000000000000000000000000000000000000081526004016115b7906121b3565b60405180910390fd5b6000600260003373ffffffffffffffffffffffffffffffffffffffff1673ffffffffffffffffffffffffffffffffffffffff16815260200190815260200160002054905060006005548261161491906122a2565b90506000606460508361162791906122a2565b6116319190612313565b90508084600360003373ffffffffffffffffffffffffffffffffffffffff1673ffffffffffffffffffffffffffffffffffffffff1681526020019081526020016000205461167f9190612560565b11156116c0576040517f08c379a00000000000000000000000000000000000000000000000000000000081526004016116b7906129f5565b60405180910390fd5b83600460009054906101000a900473ffffffffffffffffffffffffffffffffffffffff1673ffffffffffffffffffffffffffffffffffffffff166370a08231306040518263ffffffff1660e01b815260040161171c919061208b565b602060405180830381865afa158015611739573d6000803e3d6000fd5b505050506040513d601f19601f8201168201806040525081019061175d91906128c1565b101561179e576040517f08c379a000000000000000000000000000000000000000000000000000000000815260040161179590612a61565b60405180910390fd5b83600360003373ffffffffffffffffffffffffffffffffffffffff1673ffffffffffffffffffffffffffffffffffffffff16815260200190815260200160002060008282546117ed9190612560565b92505081905550600760003373ffffffffffffffffffffffffffffffffffffffff1673ffffffffffffffffffffffffffffffffffffffff16815260200190815260200160002060009054906101000a900460ff16611901576006339080600181540180825580915050600190039060005260206000200160009091909190916101000a81548173ffffffffffffffffffffffffffffffffffffffff021916908373ffffffffffffffffffffffffffffffffffffffff1602179055506001600760003373ffffffffffffffffffffffffffffffffffffffff1673ffffffffffffffffffffffffffffffffffffffff16815260200190815260200160002060006101000a81548160ff0219169083151502179055505b600460009054906101000a900473ffffffffffffffffffffffffffffffffffffffff1673ffffffffffffffffffffffffffffffffffffffff1663a9059cbb33866040518363ffffffff1660e01b815260040161195e929190612980565b6020604051808303816000875af115801561197d573d6000803e3d6000fd5b505050506040513d601f19601f820116820180604052508101906119a19190612663565b6119e0576040517f08c379a00000000000000000000000000000000000000000000000000000000081526004016119d790612748565b60405180910390fd5b3373ffffffffffffffffffffffffffffffffffffffff167fcbc04eca7e9da35cb1393a6135a199ca52e450d5e9251cbd99f7847d33a3675085604051611a269190612061565b60405180910390a2505050611a39611d29565b50565b611a44611cda565b60003411611a87576040517f08c379a0000000000000000000000000000000000000000000000000000000008152600401611a7e906121b3565b60405180910390fd5b34600260003373ffffffffffffffffffffffffffffffffffffffff1673ffffffffffffffffffffffffffffffffffffffff1681526020019081526020016000206000828254611ad69190612560565b925050819055503373ffffffffffffffffffffffffffffffffffffffff167fe1fffcc4923d04b559f4d29a8bfc6cda04eb5b0d3c460751c2402c5c5cc9109c34604051611b239190612061565b60405180910390a2611b33611d29565b565b611b3d611d33565b600460009054906101000a900473ffffffffffffffffffffffffffffffffffffffff1673ffffffffffffffffffffffffffffffffffffffff166323b872dd3330846040518463ffffffff1660e01b8152600401611b9c93929190612600565b6020604051808303816000875af1158015611bbb573d6000803e3d6000fd5b505050506040513d601f19601f82011682018060405250810190611bdf9190612663565b611c1e576040517f08c379a0000000000000000000000000000000000000000000000000000000008152600401611c1590612748565b60405180910390fd5b50565b60086020528060005260406000206000915090505481565b611c41611d33565b600073ffffffffffffffffffffffffffffffffffffffff168173ffffffffffffffffffffffffffffffffffffffff1603611cb0576040517f08c379a0000000000000000000000000000000000000000000000000000000008152600401611ca790612af3565b60405180910390fd5b611cb981611db1565b50565b60026020528060005260406000206000915090505481565b60055481565b600260005403611d1f576040517f08c379a0000000000000000000000000000000000000000000000000000000008152600401611d1690612b5f565b60405180910390fd5b6002600081905550565b6001600081905550565b611d3b611e77565b73ffffffffffffffffffffffffffffffffffffffff16611d596111cc565b73ffffffffffffffffffffffffffffffffffffffff1614611daf576040517f08c379a0000000000000000000000000000000000000000000000000000000008152600401611da690612bcb565b60405180910390fd5b565b6000600160009054906101000a900473ffffffffffffffffffffffffffffffffffffffff16905081600160006101000a81548173ffffffffffffffffffffffffffffffffffffffff021916908373ffffffffffffffffffffffffffffffffffffffff1602179055508173ffffffffffffffffffffffffffffffffffffffff168173ffffffffffffffffffffffffffffffffffffffff167f8be0079c531659141344cd1fd0a4f28419497f9722a3daafe3b4186f6b6457e060405160405180910390a35050565b600033905090565b600080fd5b6000819050919050565b611e9781611e84565b8114611ea257600080fd5b50565b600081359050611eb481611e8e565b92915050565b600060208284031215611ed057611ecf611e7f565b5b6000611ede84828501611ea5565b91505092915050565b600073ffffffffffffffffffffffffffffffffffffffff82169050919050565b6000611f1282611ee7565b9050919050565b611f2281611f07565b8114611f2d57600080fd5b50565b600081359050611f3f81611f19565b92915050565b600060208284031215611f5b57611f5a611e7f565b5b6000611f6984828501611f30565b91505092915050565b600081519050919050565b600082825260208201905092915050565b6000819050602082019050919050565b611fa781611f07565b82525050565b6000611fb98383611f9e565b60208301905092915050565b6000602082019050919050565b6000611fdd82611f72565b611fe78185611f7d565b9350611ff283611f8e565b8060005b8381101561202357815161200a8882611fad565b975061201583611fc5565b925050600181019050611ff6565b5085935050505092915050565b6000602082019050818103600083015261204a8184611fd2565b905092915050565b61205b81611e84565b82525050565b60006020820190506120766000830184612052565b92915050565b61208581611f07565b82525050565b60006020820190506120a0600083018461207c565b92915050565b60008115159050919050565b6120bb816120a6565b82525050565b60006020820190506120d660008301846120b2565b92915050565b6000819050919050565b60006121016120fc6120f784611ee7565b6120dc565b611ee7565b9050919050565b6000612113826120e6565b9050919050565b600061212582612108565b9050919050565b6121358161211a565b82525050565b6000602082019050612150600083018461212c565b92915050565b600082825260208201905092915050565b7f416d6f756e74206d7573742062652067726561746572207468616e2030000000600082015250565b600061219d601d83612156565b91506121a882612167565b602082019050919050565b600060208201905081810360008301526121cc81612190565b9050919050565b7f496e73756666696369656e742062616c616e6365000000000000000000000000600082015250565b6000612209601483612156565b9150612214826121d3565b602082019050919050565b60006020820190508181036000830152612238816121fc565b9050919050565b7f4e487b7100000000000000000000000000000000000000000000000000000000600052601160045260246000fd5b600061227982611e84565b915061228483611e84565b925082820390508181111561229c5761229b61223f565b5b92915050565b60006122ad82611e84565b91506122b883611e84565b92508282026122c681611e84565b915082820484148315176122dd576122dc61223f565b5b5092915050565b7f4e487b7100000000000000000000000000000000000000000000000000000000600052601260045260246000fd5b600061231e82611e84565b915061232983611e84565b925082612339576123386122e4565b5b828204905092915050565b7f43616e6e6f742077697468647261773a204865616c746820466163746f72207760008201527f6f756c6420646570656e642064726f702062656c6f7720310000000000000000602082015250565b60006123a0603883612156565b91506123ab82612344565b604082019050919050565b600060208201905081810360008301526123cf81612393565b9050919050565b600081905092915050565b50565b60006123f16000836123d6565b91506123fc826123e1565b600082019050919050565b6000612412826123e4565b9150819050919050565b7f455448207472616e73666572206661696c656400000000000000000000000000600082015250565b6000612452601383612156565b915061245d8261241c565b602082019050919050565b6000602082019050818103600083015261248181612445565b9050919050565b7f4e6f206465627420746f206c6971756964617465000000000000000000000000600082015250565b60006124be601483612156565b91506124c982612488565b602082019050919050565b600060208201905081810360008301526124ed816124b1565b9050919050565b7f4865616c746820466163746f72206973203e3d20310000000000000000000000600082015250565b600061252a601583612156565b9150612535826124f4565b602082019050919050565b600060208201905081810360008301526125598161251d565b9050919050565b600061256b82611e84565b915061257683611e84565b925082820190508082111561258e5761258d61223f565b5b92915050565b7f496e73756666696369656e7420636f6c6c61746572616c20746f207365697a65600082015250565b60006125ca602083612156565b91506125d582612594565b602082019050919050565b600060208201905081810360008301526125f9816125bd565b9050919050565b6000606082019050612615600083018661207c565b612622602083018561207c565b61262f6040830184612052565b949350505050565b612640816120a6565b811461264b57600080fd5b50565b60008151905061265d81612637565b92915050565b60006020828403121561267957612678611e7f565b5b60006126878482850161264e565b91505092915050565b7f546f6b656e207472616e73666572206661696c65640000000000000000000000600082015250565b60006126c6601583612156565b91506126d182612690565b602082019050919050565b600060208201905081810360008301526126f5816126b9565b9050919050565b7f5472616e73666572206661696c65640000000000000000000000000000000000600082015250565b6000612732600f83612156565b915061273d826126fc565b602082019050919050565b6000602082019050818103600083015261276181612725565b9050919050565b7f416d6f756e742065786365656473206465627400000000000000000000000000600082015250565b600061279e601383612156565b91506127a982612768565b602082019050919050565b600060208201905081810360008301526127cd81612791565b9050919050565b7f5072696365206d757374206265203e2030000000000000000000000000000000600082015250565b600061280a601183612156565b9150612815826127d4565b602082019050919050565b60006020820190508181036000830152612839816127fd565b9050919050565b7f496e73756666696369656e7420737570706c792062616c616e63650000000000600082015250565b6000612876601b83612156565b915061288182612840565b602082019050919050565b600060208201905081810360008301526128a581612869565b9050919050565b6000815190506128bb81611e8e565b92915050565b6000602082840312156128d7576128d6611e7f565b5b60006128e5848285016128ac565b91505092915050565b7f496e73756666696369656e7420706f6f6c206c697175696469747920746f207760008201527f6974686472617700000000000000000000000000000000000000000000000000602082015250565b600061294a602783612156565b9150612955826128ee565b604082019050919050565b600060208201905081810360008301526129798161293d565b9050919050565b6000604082019050612995600083018561207c565b6129a26020830184612052565b9392505050565b7f496e73756666696369656e7420636f6c6c61746572616c000000000000000000600082015250565b60006129df601783612156565b91506129ea826129a9565b602082019050919050565b60006020820190508181036000830152612a0e816129d2565b9050919050565b7f496e73756666696369656e7420706f6f6c206c69717569646974790000000000600082015250565b6000612a4b601b83612156565b9150612a5682612a15565b602082019050919050565b60006020820190508181036000830152612a7a81612a3e565b9050919050565b7f4f776e61626c653a206e6577206f776e657220697320746865207a65726f206160008201527f6464726573730000000000000000000000000000000000000000000000000000602082015250565b6000612add602683612156565b9150612ae882612a81565b604082019050919050565b60006020820190508181036000830152612b0c81612ad0565b9050919050565b7f5265656e7472616e637947756172643a207265656e7472616e742063616c6c00600082015250565b6000612b49601f83612156565b9150612b5482612b13565b602082019050919050565b60006020820190508181036000830152612b7881612b3c565b9050919050565b7f4f776e61626c653a2063616c6c6572206973206e6f7420746865206f776e6572600082015250565b6000612bb5602083612156565b9150612bc082612b7f565b602082019050919050565b60006020820190508181036000830152612be481612ba8565b905091905056fea2646970667358221220de8f7858fadd1d4cd0fe1a2456f2e76a8f303a2fe6c095d2a03c1ffbc7ff38aa64736f6c63430008140033",
  "linkReferences": {},
  "deployedLinkReferences": {}
}